:100000005CC0000082C0000080C000007EC0000014
:100010007CC000007AC0000078C0000076C00000FC
:1000200074C0000072C0000070C000006EC000000C
:100030006CC000000C94162468C0000066C000006C
:100040000C94DD2662C000000C94EF290C94212A48
:100050005CC000005AC0000058C0000056C000003C
:1000600054C0000052C0000000000008000201005F
:100070000003040700000000000000000102040863
:100080001020408001020408102001020408102002
:10009000040404040404040402020202020203032E
:1000A0000303030300000000250028002B000000CC
:1000B0000000240027002A00462A11241FBECFEF8B
:1000C000D8E0DEBFCDBF11E0A0E0B1E0E0E1F6E5B1
:1000D00002C005900D92A03FB107D9F725E0A0EF2F
:1000E000B1E001C01D92AF3CB207E1F710E0CDE5F1
:1000F000D0E004C02197FE010E94D72ACC35D10759
:10010000C9F70E94FE240C94062B7ACFCF93DF937D
:10011000882349F0EB0181500E94BD279983888391
:10012000DF91CF910895FB0111821082F9CF0F93D7
:100130001F938B019C0183E03695279517950795B2
:100140008A95D1F707501E4F462F477021E030E0C7
:10015000F90102C0EE0FFF1F4A95E2F7AF01F80167
:1001600020812423CB010196211102C090E080E080
:100170001F910F9108950F931F938B019C0183E0B2
:1001800036952795179507958A95D1F7677081E081
:1001900090E001C0880F6A95EAF7F801E750FE4F3A
:1001A0002081452B31F48095822380831F910F910C
:1001B0000895822BFACFCF92DF92EF92FF92CF93E6
:1001C000DF936B017C0160E08EE0C816D104E1048E
:1001D000F10490F48EE08C0D0E945C28E6012196DB
:1001E000AE01C701B601C7DFCE01DF91CF91FF900D
:1001F000EF90DF90CF9008958C2DEECF882341F0C3
:100200008150682F70E090E080E050E040E0B3CF94
:100210000895CF93282F8823E1F0CB01BA01CFEFC7
:10022000C20FEC2FF0E0EE5FFD4F2081213059F43A
:1002300090580E9498259B01AC016C2F70E090E0D3
:1002400080E0CF91A2C00E9493258C2FCF910C9477
:10025000D827CF9108950F931F938B019C0183E0C2
:1002600036952795179507958A95D1F700511E4F1A
:10027000462F477021E030E0F90102C0EE0FFF1F6A
:100280004A95E2F7AF01F80120812423CB010196C2
:10029000211102C090E080E01F910F9108950F930B
:1002A0001F938B019C0183E0369527951795079541
:1002B0008A95D1F7677081E090E001C0880F6A9558
:1002C000EAF7F801E051FE4F2081452B31F480958B
:1002D000822380831F910F910895822BFACF4F9232
:1002E0005F926F927F928F929F92AF92BF92CF92C6
:1002F000DF92EF92FF920F931F93CF93DF934B0107
:100300005C0129013A01670161E0882D0E945C28A7
:10031000E4012196AE01C501B401C1DF20E030E067
:10032000A901C801B6010E944E2618168CF4F401EA
:10033000EE5FFD4F81E08083C801B6010E949825E1
:100340006B01C301B2010E949825A601C40121D00E
:10035000CE01DF91CF911F910F91FF90EF90DF9031
:10036000CF90BF90AF909F908F907F906F905F9055
:100370004F900895882341F08150682F70E090E0FD
:1003800080E050E040E08BCF0895862FB9010C94B7
:10039000D8279C01FC01E859FF4FE491E33061F15B
:1003A00040F4E13011F1E23021F160E0822F0C9451
:1003B0009828E730C1F1E83009F441C0E430A9F7EA
:1003C000809180008C7F826080938000909181007A
:1003D000907E9061692B60938100509387004093D9
:1003E00086008091800080621BC084B5806884BDD7
:1003F000DCCF84B58062FBCF809180008C7F8260EF
:100400008093800090918100907E9061692B609331
:10041000810050938700409386008091800080681F
:1004200080938000C2CF8091B00080688093B0003C
:100430008091B100887F682B6093B100B6CF809126
:10044000B0008062F3CF90E080E008950F931F9397
:10045000009709F488C06115710509F484C0009102
:100460001B0110911C0120911D0130911E010E3FB6
:100470001F4F2F4F3F4F09F068C0DB014D915D9139
:100480006D917C9140931B0150931C0160931D0161
:1004900070931E0140911B0150911C0160911D0140
:1004A00070911E01DC011296ED91FC918081918189
:1004B000A281B3818093110390931203A09313033D
:1004C000B093140384819581A681B78180930D0335
:1004D00090930E03A0930F03B09310038085918532
:1004E000A285B3858093090390930A03A0930B031D
:1004F000B0930C0384859585A685B7858093050305
:1005000090930603A0930703B0930803109201038E
:1005100010920203109203031092040351D585E058
:1005200098E090931702809316029093190280939B
:10053000180235D4009731F421E030E030931603EF
:10054000209315031F910F91089500911B011091A5
:100550001C0120911D0130911E01FB0100831183BC
:100560002283338397CF8FEF9FEFECCF8F929F92B1
:10057000AF92BF92CF92DF92EF92FF921F93CF93F1
:10058000DF934B015C011091180382E090E090939F
:1005900016038093150381149104A104B10441F45E
:1005A00080911803811104C080911703C1E081116B
:1005B000C0E0C12CD12C760180911803811106C0B6
:1005C00080911703811102C0CC23D9F083E090E021
:1005D0009093160380931503CC2379F1CCE9DFEFD8
:1005E000111102C00E946A0BCE01DF91CF911F91C1
:1005F000FF90EF90DF90CF90BF90AF909F908F9043
:1006000008956AE070E080E090E00E944C2780E16D
:10061000C80E87E2D81EE11CF11C8FEF88169806E1
:10062000A806B80631F0C1E08C149D04AE04BF04E6
:1006300008F0C0E080E0E7D3BFCFD0E0C0E0D0CF8B
:10064000CF92DF92EF92FF920F931F93CF93DF939E
:100650008F3F910511F008F050C0209115033091A3
:1006600016032330310539F020911503309116031C
:100670002130310531F424E030E03093160320932B
:1006800015036A017B01EC0182309105A0F011E0B5
:10069000AE01C701B60182D3AB01BC01CE0111236B
:1006A000F9F0DF91CF911F910F91FF90EF90DF90C4
:1006B000CF900C948F0D8C01000F111F0A5E1D4FFF
:1006C000D8018D919C91892B11F30E94990D02976D
:1006D000F1F6D801ED91FC91CE010995182FD8CFF4
:1006E0000E94B10D90E080E0DF91CF911F910F91BA
:1006F000FF90EF90DF90CF9008958FEF9FEFF4CFB2
:1007000080E081C3CF93DF9386E090E0909316035F
:1007100080931503D1D3EC01E6E1F2E084E0DF0140
:100720001D928A95E9F76ED7109216031092150361
:10073000CE01DF91CF9108958091170308958091A4
:100740000003089560931B0170931C0180931D01A9
:1007500090931E0190E080E00895CF92DF92EF9297
:10076000FF920F931F93CF93DF9300D0CDB7DEB7E7
:100770006FE070E080E090E0DADC9093BC0580935D
:10078000BB0543E050E0BE016F5F7F4FBFDC2091AF
:10079000180130911901A981BA810E94DD2A609364
:1007A000C9057093CA058093CB059093CC058091C1
:1007B0001A01813009F0C2C0E091DA02F091DB0247
:1007C00020910001309101014091020150910301FB
:1007D00060817181828193810E948F2587FFA5C0EE
:1007E0008091040190910501A0910601B09107014B
:1007F0008093C5059093C605A093C705B093C8051F
:1008000065E070E080E090E026DD8C019093C40507
:100810008093C3052091C5053091C6054091C70559
:100820005091C805609110017091110180911201E1
:10083000909113010E9452262091140130911501CC
:1008400040911601509117010E9452266B017C01C4
:1008500020E030E04FE753E40E948F2518160CF497
:1008600076C020E030E0A901C701B6010E944E2603
:1008700087FF03C0C12CD12C7601B701A601C801A6
:10088000C8DC4091CF025091D0026091D1027091AA
:10089000D20281E090E0D4DE6091C7027091C8027C
:1008A0008091C9029091CA026F5F7F4F8F4F9F4F17
:1008B0006093C7027093C8028093C9029093CA02E2
:1008C0000091DA021091DB020E94C4259B01AC0169
:1008D0006091CB027091CC028091CD029091CE02BA
:1008E0000E945226F80160837183828393838091F2
:1008F000CF029091D002A091D102B091D202019684
:10090000A11DB11D8093CF029093D002A093D1027C
:10091000B093D2020F900F90DF91CF911F910F9162
:10092000FF90EF90DF90CF90089580910801909113
:100930000901A0910A01B0910B015ACF80910C01DD
:1009400090910D01A0910E01B0910F0151CFC12CDA
:10095000D12C8FE7E82E83E4F82E8FCF8F929F92D1
:10096000AF92BF92DF92EF92FF920F931F93CF93BC
:10097000DF93ECE2F2E087ED92E097838683CAEDA5
:10098000D2E0D0936D02C0936C020BEC12E0158B99
:10099000048BF0939702E0939602F583E48321E0C1
:1009A00030E0DC012D933C931092AD021092B40222
:1009B00085E491E0938782878CED92E09983888328
:1009C00040E050E068EC72E44093D3025093D402CC
:1009D0006093D5027093D6024FE652E163E87AE362
:1009E000D8014D935D936D937C931397C5EBD2E043
:1009F00083EF9AE5A0E7BBE888839983AA83BB834A
:100A000082E599ECA7E8B1E78093B9029093BA0226
:100A1000A093BB02B093BC0284E299E2A0E6B2E6E6
:100A20008093BD029093BE02A093BF02B093C00218
:100A300082E196E4A4EFBBE68093C1029093C202E8
:100A4000A093C302B093C402A0E2B2E0B383A28336
:100A5000EAE1F2E01196FC93EE9387E591E0918351
:100A60008083938382839583848385EC92E01596BB
:100A70009C938E9314971396DC93CE93129740EA2F
:100A800056E861E070E018964D935D936D937C930A
:100A90001B97C5EBD5E01882812C912C54018394CF
:100AA00089829A82AB82BC826FE070E080E090E045
:100AB00082DB9F838E83DD24D394DD821886898632
:100AC0009A86AB86BC86E12CF12C8701A8019701A0
:100AD00065E070E080E090E002DC9F878E87DD8635
:100AE000DF91CF911F910F91FF90EF90DF90BF901A
:100AF000AF909F908F9008958091B50581111DC092
:100B000081E08093B5058091B6059091B705A091DD
:100B1000B805B091B9050197A105B10571F48091AF
:100B2000BA05882351F06FE070E080E090E0FFDAD2
:100B30009093BC058093BB0561DB8091BD0581115D
:100B40002AC081E08093BD058091BE059091BF05CC
:100B5000A091C005B091C1050197A105B105D9F4D7
:100B60008091C2058823B9F065E070E080E090E0F4
:100B700072DB9093C4058093C30540E050E0BA0156
:100B800048DB65E070E080E090E065DB9093C405B1
:100B90008093C305EFCB08954F925F926F927F923F
:100BA0008F929F92AF92BF92CF92DF92EF92FF927D
:100BB0000F931F93F8944090F0025090F1026090D0
:100BC000F2027090F302C090E402D090E502E0904F
:100BD000E602F090E7024130510509F0A4C09B0104
:100BE000AC01241935094609570929013A01009138
:100BF000EC021091ED022091EE023091EF024801DB
:100C00005901840C951CA61CB71C80169106A206DF
:100C1000B306A0F40091E8021091E9022091EA02E3
:100C20003091EB020F5F1F4F2F4F3F4F0093E802B1
:100C30001093E9022093EA023093EB028092EC02D7
:100C40009092ED02A092EE02B092EF020091E802C3
:100C50001091E9022091EA023091EB028092F402B5
:100C60009092F502A092F602B092F7020093F80279
:100C70001093F9022093FA023093FB026093F00282
:100C80007093F1028093F2029093F302A8EEB3E026
:100C9000A30192010E94EC2A6C0D7D1D8E1D9F1DEB
:100CA0006093E4027093E5028093E6029093E7027A
:100CB00000911B0110911C0120911D0130911E011A
:100CC0000F3F1F4F2F4F3F4FF1F000911B0110912D
:100CD0001C0120911D0130911E010E3F1F4F2F4F0F
:100CE0003F4F89F0C0901B01D0901C01E0901D0186
:100CF000F0901E0121E08C149D04AE04BF0408F4A2
:100D000020E02093000378941F910F91FF90EF90C3
:100D1000DF90CF90BF90AF909F908F907F906F901B
:100D20005F904F9008954B015C0184189508A608C8
:100D3000B708A3019201261B370B480B590B64150A
:100D4000750586059705D0F082169306A406B506AC
:100D500040F420E030E0A90181149104A104B10421
:100D600091F4A8EEB3E00E94EC2AA7019601261B9D
:100D7000370B480B590BCA01B901C5CF8216930630
:100D8000A406B50670F7A8EEB3E0A50194010E9491
:100D9000EC2A6C0D7D1D8E1D9F1DB5CFFDCECF9312
:100DA000DF9300D000D0CDB7DEB71C821B821A8241
:100DB00019821092FC021092FD021092FE02109213
:100DC000FF02BE016F5F7F4FCE0103960E94C123D9
:100DD00069817A818B819C810E94B91C009761F4A2
:100DE000BE016F5F7F4FCE0103960E94CD236981C4
:100DF0007A818B819C8129D50F900F900F900F9055
:100E0000DF91CF910895FF920F931F93CF93DF93BC
:100E1000082F60E070E0CB010E944C27FF24F39480
:100E20000E94A41BEC01892B89F010E0CE3F8FEFCC
:100E3000D80769F0002361F160E070E0CB010E9407
:100E40004C2781E090E0892B59F322C011E020D596
:100E5000EC01892B21F0CE3F8FEFD80759F7111104
:100E60001EC011E0229609F410E00E94551BEC010F
:100E7000892B21F0CE3F8FEFD807E1F6111111C079
:100E800011E0CE3F8FEFD80709F410E001110BC03D
:100E9000CE01DF91CF911F910F91FF90089511E046
:100EA000E4CF11E0F3CF60E070E0CB010E944C276B
:100EB0001F25812F90E0C7CFCF93DF938091000350
:100EC000882321F060E070E0CB0149D632D6D0E033
:100ED000C0E0892B71F06AE070E080E090E00E9451
:100EE0004C2781E090DF25D62196C03D27E0D20730
:100EF00081F724D60E940D1D10921803109217033B
:100F00001092110310921203109213031092140303
:100F100010920D0310920E0310920F031092100303
:100F20001092090310920A0310920B0310920C0303
:100F30001092050310920603109207031092080303
:100F40001092010310920203109203031092040303
:100F50004EEF5FEF6FEF7FEF40931B0150931C014B
:100F600060931D0170931E0110920003E4EFF2E004
:100F700028E0DF011D922A95E9F71092F002109205
:100F8000F1021092F2021092F3021092EC0210920F
:100F9000ED021092EE021092EF021092E80210920F
:100FA000E9021092EA021092EB021092E40210920F
:100FB000E5021092E6021092E702DF91CF910895C8
:100FC00010922403109225031092260310922703F7
:100FD0001092230380912C0390912D039093220370
:100FE000809321031092200310921F0310921B0381
:100FF00010921C0310921D0310921E0310922903DD
:101000001092280390E080E00895CF92DF92EF9253
:10101000FF920F931F93CF938C01019709F055C056
:1010200020912C0330912D03809121039091220374
:1010300040912C0350912D035093220340932103A0
:101040002817390781F01092200310921F03109285
:101050001B0310921C0310921D0310921E0310928A
:1010600029031092280380912C0390912D0301975E
:1010700061F58091280390912903892B21F48091B7
:101080001F01811112C080912803909129030197BB
:10109000E1F480911B0390911C03A0911D03B0917A
:1010A0001E030197A105B10581F410921B03109254
:1010B0001C0310921D0310921E0310921F0182E068
:1010C00090E0909329038093280380912C039091C2
:1010D0002D03019709F01CC18091420390914303B5
:1010E0008017910709F014C180913E0390913F034E
:1010F000A0914003B0914103009709F409C12091E8
:101100003D0321110DC040913E0350913F0360917A
:10111000400370914103452B462B472B09F4F8C03F
:1011200020912803309129032230310509F0F0C0C5
:1011300020911F032111ECC0FC01C080D180E2800E
:10114000F38080912303882309F4D3C080912F0377
:1011500090913003892B09F4FEC020912F03309128
:10116000300381E02230310509F080E020912F0327
:1011700030913003C1E02130310549F020912F0337
:1011800030913003C1E02230310509F0C0E08823FE
:1011900009F456C02091390330913A0340913B0342
:1011A00050913C03C701B6010E944E2687FD14C032
:1011B0002091390330913A0340913B0350913C0315
:1011C0006091240370912503809126039091270359
:1011D0000E948F2587FD22C02091390330913A0368
:1011E00040913B0350913C03C701B6010E944E263B
:1011F000181634F52091390330913A0340913B039E
:1012000050913C0360912403709125038091260343
:10121000909127030E948F25811112C08091310384
:1012200090913203A0913303B0913403892B8A2B20
:101230008B2B19F481E08093200381E080931F03BE
:10124000CC2309F456C02091390330913A034091E0
:101250003B0350913C03C701B6010E948F2587FFD5
:1012600014C02091390330913A0340913B035091CF
:101270003C03609124037091250380912603909193
:1012800027030E944E2687FF22C020913903309108
:101290003A0340913B0350913C03C701B6010E94C1
:1012A0008F25811126C02091390330913A03409156
:1012B0003B0350913C03609124037091250380917E
:1012C0002603909127030E944E26181694F48091CD
:1012D000310390913203A0913303B0913403892BF1
:1012E0008A2B8B2B19F481E08093200381E080937B
:1012F0001F0381E090911F03911180E080932303ED
:10130000C0922403D0922503E0922603F092270393
:101310000130110509F067C18091280390912903DC
:10132000892BD9F410922E0310921F0380911F0174
:10133000882379F082E090E090932903809328033A
:1013400010921F0120912C0330912D0381E0232B5B
:10135000E9F080E01BC081E009CF10921F0180916D
:101360002E03882349F01092200310922903109233
:10137000280310922E03EDCF80912C0390912D0322
:10138000892BE1F080911F0310921F032091280305
:10139000309129032230310509F45EC088F421150B
:1013A000310509F448C02130310509F4F3C0109229
:1013B000200310921F0310922E0338C081E0E6CF65
:1013C0002330310509F4B1C02430310581F7409153
:1013D0001B0350911C0360911D0370911E03411566
:1013E00051056105710561F04150510961097109AB
:1013F00040931B0350931C0360931D0370931E03C3
:1014000040911B0350911C0360911D0370911E03BA
:10141000452B462B472BD9F420912A0330912B03DF
:101420002130310509F046C01092200310922903A3
:10143000109228030CC080911F01882341F082E0A4
:1014400090E0909329038093280310921F0110923B
:10145000190380912003CEC08823C9F38091310302
:1014600090913203A0913303B091340318161906FA
:101470001A061B060CF07DC080912C0390912D0361
:10148000019709F076C08091310390913203A091C9
:101490003303B091340380931B0390931C03A093F8
:1014A0001D03B0931E0383E090E090932903809383
:1014B0002803CDCF40913503509136036091370317
:1014C00070913803452B462B472BA9F0109220032F
:1014D0008091350390913603A0913703B091380382
:1014E00080931B0390931C03A0931D03B0931E03D2
:1014F00081E090E0DACF882399F0809120019091EB
:101500002101A0912201B091230180931B039093AC
:101510001C03A0931D03B0931E0384E090E0C5CF8D
:101520001092200382E090E0C0CF80911B03909145
:101530001C03A0911D03B0911E030097A105B105E6
:1015400059F00197A109B10980931B0390931C03E3
:10155000A0931D03B0931E0380911B0390911C0365
:10156000A0911D03B0911E03892B8A2B8B2B09F0B0
:101570006ECF8091200190912101A0912201B09124
:101580002301892B8A2B8B2B09F44ECF81E080938A
:101590002003B3CF40911B0350911C0360911D03A6
:1015A00070911E03411551056105710561F04150AF
:1015B00051096109710940931B0350931C03609307
:1015C0001D0370931E0340911B0350911C036091F7
:1015D0001D0370911E03452B462B472B09F037CF77
:1015E0008111C7CF9FCF80911903882309F431CF90
:1015F00080911A03CF911F910F91FF90EF90DF9090
:10160000CF90089510922403109225031092260380
:10161000109227031092230310922903109228039B
:10162000109222031092210310924303109242035E
:101630001092200310921F0310921B0310921C03A0
:1016400010921D0310921E0310921A031092190398
:1016500010923E0310923F031092400310924103F8
:1016600010923D031092390310923A0310923B03FB
:1016700010923C0388EE93E0A0E0B0E0809320015C
:1016800090932101A0932201B0932301109235037E
:1016900010923603109237031092380310923103E0
:1016A00010923203109233031092340310923003DD
:1016B00010922F0381E080931F0110922E0310924D
:1016C0002D0310922C0310922B0310922A0390E00A
:1016D00080E0089580912C0390912D03892BE1F4F3
:1016E00080911F01882351F080912E03811106C043
:1016F00081E080931A0380931903089580912E034B
:10170000882341F080911F01811104C010921A03B7
:1017100081E0F1CF10921903089582E090E0FA0180
:10172000918380838FEF9FEF0895CF93DF93EA013A
:10173000009711F00E942A1E1982188290E080E022
:10174000DF91CF910895DB01009719F48FEF8C930F
:1017500008952EEF2C9340968031910508F036C005
:10176000FC01EB54F44F0C94D72AE40BE20BE00B92
:10177000DE0BDC0BDA0BD60BD80BD40BD20BD00B59
:10178000CD0BC90BC50BCB0BE60B80E311968C93ED
:10179000089589E2FBCF82E2F9CF11961C92089559
:1017A00083E2F4CF81E2F2CF81E1F0CF87E2EECFA6
:1017B0008AE2ECCF80E1EACF84E2E8CF88E2E6CFAC
:1017C00086E2E4CF81E3E2CF83E3E0CF80E2DECFC5
:1017D0008091500390915103089590935103809309
:1017E0005003089580914F03089590914F03892BE2
:1017F00080934F030895982F909580914F038923EC
:1018000080934F03089580914E03089580914C0377
:1018100090914D0308956115710559F0FB0130E079
:1018200020E070E060E02417350719F061157105BC
:1018300011F0CB010895A081B181A817B90709F46F
:10184000BF012F5F3F4F3696EECF8091520381113B
:101850001CC062D268D290934503809344030E94D7
:101860002F160E94411690934903809348030E94CB
:10187000BF1A0E94C61A909347038093460381E0E3
:101880008093520390E080E0089584EF9FEF0895E5
:101890008F929F92AF92BF92CF92DF92EF92FF9280
:1018A0000F931F93CF93DF93CDB7DEB72A970FB671
:1018B000F894DEBF0FBECDBF1A86198618861F8228
:1018C0001E821D821C821B821A8219828091520301
:1018D00007EF1FEF882309F49CC08E010D5F1F4F97
:1018E0009E012B5F3F4FAE01495F5F4FBE01675FB7
:1018F0007F4F90E080E00E943F1C8C01009721F018
:101900000596029708F0DBC029853A852115310537
:1019100009F402C1ED80FE804B815C81B701640F48
:10192000751F8F8198858617970708F4F5C0E20E1A
:10193000F31ED7019C91903C09F07FC042305105C5
:1019400008F47BC011968C91409150035091510343
:10195000452B09F49CC0913F08F071C02CE1290F80
:101960002D3008F48BC02DE2290F203108F489C0F6
:10197000903C21F48150823008F483C088E3890FC1
:101980008B3008F481C093EAC92E9BE0D92EEDE894
:10199000FBE06D817E81AE014F5F5F4F89859A8547
:1019A00009955C01C114D104A1F189809A80811448
:1019B000910479F18B819C818815990508F487C081
:1019C00010E000E04B815C8170E060E0C7010E94A4
:1019D000FF2A01151105E9F449815A8169857A8543
:1019E0008D819E81680F791FC501F6010995E980F7
:1019F000FA800D811E812F81388549855A856FEFC8
:101A00007FEF81E090E00E94DB1B8C01892B09F0C5
:101A100056C0C8012A960FB6F894DEBF0FBECDBFE0
:101A2000DF91CF911F910F91FF90EF90DF90CF90BA
:101A3000BF90AF909F908F90089580E085CF30E069
:101A400020E0220F331FF901EC5BFC4F0190F08185
:101A5000E02D309709F497CF892F90E009950097F2
:101A600009F491CFDC011296ED91FC911397149635
:101A7000CD90DC90309709F08CCF1FC021E030E092
:101A8000E0CF22E030E0DDCF23E030E0DACFD12C30
:101A9000C12CE5E9FBE09F3F09F07BCFE0914403D7
:101AA000F0914503309721F4C90104EF1FEF0CC0FA
:101AB0008FEF90E009950097A9F604EF1FEF898555
:101AC0009A85009709F4A5CF0E942A1EA2CF0E94F2
:101AD000081D8C0189859A850E942A1E70E060E0AD
:101AE000C4010E94A11C98878F830E94D81B9E83EB
:101AF0008D836F8178856115710559F0C8010E9449
:101B0000B61F9A87898706EF1FEF892B09F058CFF8
:101B100059CF08EF1FEF56CF08EF1FEFD0CF20911E
:101B20005203222319F020E00C94461687EF9FEF12
:101B30000895809150039091510308950E94CB1A0B
:101B40000E94251AF5D0E4E4F3E088E0DF011D925D
:101B50008A95E9F71092520390E080E008950C9482
:101B6000821821E040E050E0BA010C94461686E06D
:101B700090E0FA019183808390E080E0089547E04F
:101B800050E06AE571E047CEDF92EF92FF920F934B
:101B90001F93CF93DF938A01EC01C60FD71FE0900C
:101BA0005603F0905703D9800E94F01CD8161906EE
:101BB00078F082E090E0F801918380838EEF9FEFD0
:101BC000DF91CF911F910F91FF90EF90DF900895DB
:101BD000EF2841F482E090E0F8019183808384EF64
:101BE0009FEFEECF89818093550390E00196F80135
:101BF0009183808390E080E0E3CFCF93DF93EA018D
:101C00000E943319882321F00E94FD1C0E94341980
:101C100082E090E0998388838BEF9FEFDF91CF91F3
:101C20000895CF93DF93EB0186E0FB0111928A9533
:101C3000E9F78FEF8883D6DD8983E5DD8A83E6DDEA
:101C40009D838C83DF91CF910895CF93DF93EA0139
:101C50000E943619811109C082E090E0998388833F
:101C600085EF9FEFDF91CF91089590E080E0B5DDA3
:101C700081E090E09983888390E080E0F3CF0F9338
:101C80001F93CF93DF93EA018C01060F171F0E9469
:101C9000361981110BC082E090E09983888385EF2B
:101CA0009FEFDF91CF911F910F910895F8018181EE
:101CB000823038F082E090E0998388838EEF9FEF46
:101CC000F0CF81E090E089DD88E090E0998388831F
:101CD00090E080E0E6CFCF93DF930097D1F4EB0163
:101CE000FB01329686E0DF011D928A95E9F78FEFBE
:101CF000888385E089831A820E94F01C8B830E946E
:101D0000EF1C9D838C8381E08E838F83DF91CF9145
:101D10000895DF91CF9117CD8FEB9DE09093540301
:101D20008093530308958091530390915403089531
:101D3000109254031092530308958091560390918A
:101D400057030895411105C061157105810591057D
:101D500061F06093560370935703809358039093F8
:101D6000590340935A0381E0089580E00895FF925B
:101D70000F931F93CF93DF938A01EC01C60FD71FF8
:101D8000F9800E94F01CF816190668F082E090E0D5
:101D9000F801918380838EEF9FEFDF91CF911F91A8
:101DA0000F91FF9008956C817D818E819F814B8181
:101DB000C9DF811108C082E090E0F801918380833F
:101DC00084EF9FEFEACF89818093550390E00196DD
:101DD000F8019183808390E080E0DFCFCF93DF93A1
:101DE000EA01FC01E60FF71F648175818681978106
:101DF0004381A8DF811109C082E090E09983888344
:101E000084EF9FEFDF91CF91089581E090E0998377
:101E1000888390E080E0F6CFE6E5F3E040815181F1
:101E200062817381480F511D611D711D4083518373
:101E3000628373830895CF93C09155034C2F50E074
:101E4000609156037091570301960E94F62A8C2FD9
:101E5000E3DF10925503CF910895009799F4809194
:101E60005603909157032FEFFB012083892B59F0E4
:101E70002091550330E02F5F3F4F2417350719F4A9
:101E8000CB01D9CF60CC0895009799F48091560387
:101E9000909157032FEFFB012083892B59F020915C
:101EA000550330E02F5F3F4F2417350719F4CB015E
:101EB000C2CF49CC089523E1AC01249FC001259FE6
:101EC000900D1124E0915F03F0916003E80FF91F7A
:101ED000238134812250310981E02230310508F01C
:101EE00080E008950F931F93CF93DF9300916103D8
:101EF00010916203D0E0C0E080E00C171D0749F4A8
:101F000091E0811190E0892FDF91CF911F910F9186
:101F100008958111F5CFCE01CEDF2196EECFA091AD
:101F20005F03B0916003109729F120916103309114
:101F3000620382179307F0F453E1589F9001599F71
:101F4000300D1124A20FB31FED91FC911197309722
:101F500089F012968C91681768F48DE0689FE00D07
:101F6000F11D112480819181892B21F081E09281E2
:101F7000491708F080E008959C0143E1429FC001A9
:101F8000439F900D1124E0915F03F0916003E80FEF
:101F9000F91F8385823091F481E090E0658176813C
:101FA00040912401509125016417750711F490E0C8
:101FB00080E0892B19F081E0232B09F080E008955F
:101FC000FC01A081B1818DE0689FA00DB11D11249D
:101FD00013964D915C9185859685489F9001499F08
:101FE000300D589F300D1124C9010196611103C0B5
:101FF000478144FD04960895EF92FF920F931F933B
:10200000CF93DF93EA01FC01E60FF71F02811381F2
:10201000E480F5804F2D6E2DC80181DF81110DC048
:1020200082E090E0998388838EEF9FEFDF91CF91DC
:102030001F910F91FF90EF900895C8013CDF882316
:1020400039F082E090E09983888388EF9FEFEECFAC
:1020500010932B0100932A01E0922C01F0922D01A4
:1020600081E090E09983888390E080E0DFCFCF9299
:10207000DF92EF92FF920F931F93CF93DF937A013A
:10208000EC01C60FD71FC0902A01D0902B01009100
:102090002C0110912D01412F602FC60140DF8111CD
:1020A00010C082E090E0F701918380838AEF9FEF78
:1020B000DF91CF911F910F91FF90EF90DF90CF9024
:1020C0000895C601F8DE882341F082E090E0F70130
:1020D0009183808388EF9FEFEBCF4C815D816E8190
:1020E0007F819A8189818F3F41F082E090E0F70102
:1020F000918380838EEF9FEFDBCFE3E1EC9D900136
:10210000ED9D300D1124E0915F03F0916003E20F2B
:10211000F31F0190F081E02D2DE0029FE00DF11DF5
:1021200011240190F081E02D27E0129FE00DF11DB8
:102130001124808391838B818283438354836583BD
:1021400076831F5F10932D0181E090E0F70191836A
:10215000808390E080E0ACCFEF92FF920F931F93CB
:10216000CF93DF937A018C01060F171FC0915F0395
:10217000D0916003209781F021E030E0F801828166
:10218000938140916103509162038417950710F089
:1021900030E020E0232B71F482E090E0F70191839E
:1021A00080838EEF9FEFDF91CF911F910F91FF9072
:1021B000EF90089543E1489F9001499F300D11240D
:1021C000C20FD31F78DE882341F082E090E0F70150
:1021D0009183808388EF9FEFE6CFF80124813581DA
:1021E00020383105C8F687818111D6CF4181842FEF
:1021F00090E08F7E009741F082E090E0F7019183BC
:10220000808386EF9FEFCFCF4F833E832D83268140
:1022100028871986223010F421E0288721E030E059
:10222000F70131832083BFCF88E090E0FA019183EA
:10223000808390E080E00895FB018FEF808381E14F
:1022400081838FEF9FEF9383828380E890E0958373
:102250008483168217820895FB018FEF808391E0BB
:10226000918382839383848384E3858381E090E0F8
:1022700097838683089582E090E0FA0191838083BA
:1022800080EF9FEF0895DF92EF92FF920F931F93DD
:10229000CF93DF93EA01FC01E60FF71F81818130C4
:1022A00071F082E090E0998388838FEF9FEFDF9158
:1022B000CF911F910F91FF90EF90DF900895828151
:1022C0009381D4802581E680F78000915F0310918F
:1022D00060030115110539F482E090E09983888349
:1022E0008CEF9FEFE4CF409161035091620384171C
:1022F000950738F082E090E0998388838EEF9FEF16
:10230000D6CF892B39F082E090E09983888386EFDD
:102310009FEFCDCF8D2D8D7FB1F72130A1F781E0DB
:10232000D11006C091E0E916F10431F080E004C05C
:10233000E2E0EE16F104D0F3882329F390E080E088
:10234000BADD882339F082E090E09983888388EFB2
:102350009FEFADCFF801D38681E08487F686E586CE
:10236000108A178681E090E09983888390E080E06E
:102370009ECF4DE050E064E871E04DCA8F929F928D
:10238000BF92CF92DF92EF92FF920F931F93CF9362
:10239000DF93EA01FC01E60FF71F8281938104813C
:1023A000B580E0915F03F0916003309791F482E093
:1023B00090E0998388838CEF9FEFDF91CF911F91FD
:1023C0000F91FF90EF90DF90CF90BF909F908F90F4
:1023D000089520916103309162038217930738F0CA
:1023E00082E090E0998388838EEF9FEFE6CF23E130
:1023F000289F6001299FD00C1124EC0DFD1DE08069
:10240000F180E114F10499F28281081748F78DE018
:10241000089F80011124E00EF11EF7018081918157
:10242000892B29F6BB20E1F2F7E0BF9E4001112481
:10243000C4010E94F11DF70191838083E0915F0345
:10244000F0916003EC0DFD1D0190F081E02DE00F97
:10245000F11F80819181009739F482E090E09983A7
:1024600088838DEF9FEFA9CFA40170E060E00E9408
:10247000FF2A80915F0390916003C80ED91EF60178
:1024800080819181080F191FF801B28281E090E0EC
:102490009983888390E080E090CFAF92BF92CF92F3
:1024A000DF92FF920F931F93CF93DF93EA01FC011A
:1024B000E60FF71F82819381F48000915F031091F2
:1024C00060030115110581F482E090E0998388830F
:1024D0008CEF9FEFDF91CF911F910F91FF90DF90D5
:1024E000CF90BF90AF900895209161033091620327
:1024F0008217930738F082E090E0998388838EEF0B
:102500009FEFE8CF2FEF2F0D2C3FA8F723E1289F57
:102510006001299FD00C11240C0D1D1DF801808134
:102520009181892B89F6FDE0FF9E50011124C501A0
:102530000E94F11DF80191838083E0915F03F09187
:102540006003EC0DFD1D80819181009739F482E0DC
:1025500090E0998388838DEF9FEFBCCFA50170E059
:1025600060E00E94FF2AE0915F03F0916003EC0DB0
:10257000FD1DF28281E090E09983888390E080E005
:10258000A9CFCF92DF92EF92FF920F931F93CF9339
:10259000DF93860F971FFC010281138180915F03F7
:1025A00090916003892B81F082E090E0FA019183A1
:1025B00080838CEF9FEFDF91CF911F910F91FF9060
:1025C000EF90DF90CF900895C801B0E0A0E00197B0
:1025D000A109B1098F3F9F4FA105B10540F082E0ED
:1025E00090E0FA01918380838EEF9FEFE4CF7A0130
:1025F00083E1809F6001819FD00C1124C6010E945D
:10260000F11DEC01009741F482E090E0F701918325
:1026100080838DEF9FEFCFCFA60170E060E00E9436
:10262000FF2AD0936003C0935F031093620300936B
:10263000610390E080E02FEF3FEF41E061E070E068
:102640008017910741F481E090E0F7019183808346
:1026500090E080E0B0CF3A8B298B1B864C877E8739
:102660006D87188A1F8601966396EACFEF92FF92D4
:102670001F93CF93DF93EC0110E0F12CE12C6A81E2
:102680001617A8F070E0660F771FAE014F5E5F4F20
:10269000C7010E94561E009721F02FEF3FEF3A8BA3
:1026A000298BDF91CF911F91FF90EF900895612FBB
:1026B000CE0186DC61E070E00E94A11CE816F906FC
:1026C00008F47C011F5FDBCFF89420915D0330910B
:1026D0005E0381E02115310509F080E0232B09F02C
:1026E000789408952F923F924F925F926F927F92CB
:1026F0008F929F92AF92BF92CF92DF92EF92FF9212
:102700000F931F93CF93DF933C01660E771EF30167
:10271000828193814C01B12CA12CC0915F03D09197
:102720006003209769F021E030E0609161037091CF
:1027300062038617970710F030E020E0232BD1F4D6
:1027400082E090E0FA01918380838EEF9FEFDF912A
:10275000CF911F910F91FF90EF90DF90CF90BF909E
:10276000AF909F908F907F906F905F904F903F9031
:102770002F90089580922E0190922F01A092300107
:10278000B092310163E1689F9001699F300D11247F
:10279000C20FD31FF3018181833040F082E090E0CB
:1027A000FA019183808386EF9FEFD1CF2A012B819D
:1027B0003C81232BF1F4288139819F8191FF2EC028
:1027C000232B09F46FC0209164039A81422F490F93
:1027D0005527551FBA0141E050E06138710514F0EA
:1027E00050E040E0452B09F45DC02A87920F90939A
:1027F00064038150823008F481C066DF882309F4C5
:10280000D8C0F3018181813009F48DC008F47BC008
:10281000823009F4C6C090E080E0ADC0232B09F4FB
:1028200041C0209163039A81E22FE90FFF27FF1F28
:1028300041E050E0ED3FF10514F050E040E0452B61
:1028400089F12A87920F90936303D3CFA081B1813E
:10285000A20FB31F11966C91060F111D0196295FEF
:102860003F4F8417950794F38D859E85089F10012F
:10287000099F300C189F300C1124C114D104D1F4DD
:102880008F8184FF17C00E94EF1CF5E02F0E311CD2
:1028900021E08215930508F420E0A701435F5F4F14
:1028A00021110EC082E090E0F2019183808387EFD6
:1028B0009FEF4DCF0E94EF1C2FEF221A320AE8CF74
:1028C00088819981E80EF91EF70114830383FFEFD5
:1028D000CF1ADF0A7A018A818C151D0409F00CF4E5
:1028E0008CCFE881F981EE0DFF1D428150E030E090
:1028F00020E010E000E090E080E0B3CFF12CE12C8C
:10290000D12CC12CE8CF81E090E09C838B83EADA64
:10291000882309F480CF81E090E00E94ED0B80E4F1
:102920000E94FB0B78CF89899A89019661F083E038
:1029300090E09C838B8382E090E00E94ED0B80E42A
:102940000E94F50B68CF8D819E81209124013091EA
:10295000250182179307D1F4609128017091290114
:10296000AE014F5E5F4F80912601909127010E943A
:10297000751F0097E1F2789422E030E0F201318394
:102980002083892B99F08DEF9FEFE1CE89288A284B
:102990008B2869F6029758F6CE0168DE188A1F86E2
:1029A000E8CF82E090E09C838B8335CF90E080E09D
:1029B000CECE82E090E0F2019183808385EF9FEF9D
:1029C000C6CE8F929F92AF92BF92CF92DF92EF923C
:1029D000FF920F931F93CF93DF93EA018C01060FB1
:1029E000171FF8018181833098F082E090E099838D
:1029F000888386EF9FEFDF91CF911F910F91FF901A
:102A0000EF90DF90CF90BF90AF909F908F90089500
:102A100080915F0390916003892B61F081E090E0E9
:102A20002091610330916203232B11F490E080E048
:102A3000892B39F482E090E0998388838EEF9FEFB1
:102A4000DACF42DE882309F4E0C0F80181818130C9
:102A500009F496C0E8F0823099F420916103309136
:102A60006203E0915F03F091600390E080E041E059
:102A700050E02817390709F0BEC034DA811117C0B9
:102A8000789481E090E09983888390E080E0B3CFF0
:102A90002091610330916203E0915F03F091600344
:102AA00090E080E041E050E02817390741F481E0F0
:102AB00090E00E94ED0B80E40E94FB0BE1CF63816C
:102AC0007481672B11F05483438301967396ECCF86
:102AD000E0915F03F0916003E00FF11F23813481E7
:102AE00022303105D9F4218932892F3F3F4FB1F48B
:102AF0002581368140912401509125012417350705
:102B000061F5AF014F5E5F4F60912801709129011F
:102B100080912601909127010E94751FEFEFCE1A38
:102B2000DE0AEE0AFE0A0D5E1F4F409161035091CE
:102B3000620370E060E0C416D506E606F70644F5C9
:102B4000009731F27894892B09F49BCF82E090E0D2
:102B5000998388838DEF9FEF4ECFC114D104E10498
:102B6000F104E1F622303105C8F6CF017FDDE091B6
:102B70005F03F0916003E00FF11F108A1786CECF3C
:102B800010E000E090E080E0C12CD12C7601CDCFA8
:102B90000097C1F610E000E0812C912C540183E0F5
:102BA000E82EF12C1AC0E0915F03F0916003E00F72
:102BB000F11F83819481029749F4F482E38282E0D9
:102BC00090E00E94ED0B80E40E94F50BFFEF8F1A5E
:102BD0009F0AAF0ABF0A0D5E1F4F8091610390915B
:102BE0006203B0E0A0E088169906AA06BB06DCF2F4
:102BF00090E080E0A7CF638174816230710511F4A9
:102C0000548343830196739634CF82E090E0998396
:102C1000888385EF9FEFEFCE0097B9F48FEFFB012C
:102C2000808320912E0130912F0143E1429FC0010A
:102C3000439F900D1124E0915F03F0916003E80F32
:102C4000F91F8285FB01818308950C94A30B88E012
:102C500090E0FA019183808390E080E008951092E3
:102C60005E0310925D03EFE5F3E086E0DF011D9265
:102C70008A95E9F789EB91E190935C0380935B037C
:102C8000089580915B0390915C0308952F923F9289
:102C90004F925F926F927F928F929F92AF92BF926C
:102CA000CF92DF92EF92FF920F931F93CF93DF9318
:102CB000CDB7DEB72F970FB6F894DEBF0FBECDBFEE
:102CC000F894E0915D03F0915E033196F0935E031A
:102CD000E0935D03789440905F035090600341144B
:102CE000510409F40CC2E0916103F0916203EF2BEF
:102CF00009F405C22D8749875A876B877C87988797
:102D00008F831201B12CA12C10E000E080916103AF
:102D100090916203A816B90618F40115110529F15E
:102D2000F89480915D0390915E03019790935E0308
:102D300080935D037894C8012F960FB6F894DEBF98
:102D40000FBECDBFDF91CF911F910F91FF90EF90FC
:102D5000DF90CF90BF90AF909F908F907F906F90BB
:102D60005F904F903F902F9008957101E418F508FF
:102D7000D10117968C91179781FD54C013968D91B0
:102D80009C911497039709F04DC015968D919C91D5
:102D9000EF81F8858E179F0709F044C0B50190E0D8
:102DA00080E07ED48A8320915F03309160033D836D
:102DB0002C833D85332309F44CC04C815D81452B28
:102DC00009F49AC18091610390916203A816B90633
:102DD00008F092C1C501D0D88823E9F06C817D81CB
:102DE0006E0D7F1D7D836C83DB011F968D919C9101
:102DF000892B89F0D12CC12CF12CE12CAC81BD8127
:102E000012968C9112978E151F0409F094F4509627
:102E10001C921E921F972A81222321F0B50190E077
:102E200080E040D43FEFA31AB30A43E1240E311CE3
:102E30006DCFAC81BD81ED91FC91EC0DFD1D8581C7
:102E4000968108D7BFEFEB1AFB0AEDE0CE0ED11C3E
:102E5000D5CFEC81FD81309709F44EC1809161039B
:102E600090916203A816B90608F046C1EE0DFF1D49
:102E7000FF87EE87C50180D88B83882339F1AE8523
:102E8000BF851F968D919C915097019621E01D96CC
:102E90004D915C918417950709F020E02E831982EB
:102EA000712C10E000E0AE85BF8512968C917816EB
:102EB00008F45DC0EE85FF8587859089019665855C
:102EC00076850E94A12A908B8787A5CFB1E0BE832B
:102ED000E6CF992493946BC084D6F60196838583BC
:102EE00082C0D601ED90FC90B7E06B9EE00CF11C27
:102EF0001124F7016381748180818F3F61F121E0AA
:102F000030E002C0220F331F8A95E2F7C901092E73
:102F1000000CAA0BBB0BFB014081518162817381C4
:102F200084239523A623B72321E0892B8A2B8B2B7F
:102F300009F420E0D4012C93D70111968C91F6016D
:102F400023853485820F932F911D880E991E148638
:102F5000138663949BC0418150E0C4010E94F62A0D
:102F6000EBCF998206EF1FEFC5C01982C3C0F9816C
:102F7000F111A0CFEDE07E9E70011124AE85BF85DA
:102F8000CD90DC90CE0CDF1C13D49D838C83BB8151
:102F9000BB2309F49ECF81E0EE85FF85278530892C
:102FA000232B09F080E0982E882309F458C0672D60
:102FB0008E859F8505D8D60118969C938E9317977A
:102FC00061E070E0BED4EE85FF85218932892F3F14
:102FD000320709F481CFBC01C901C8D7D6011696C2
:102FE0009C938E931597D60115968D919C9116976B
:102FF000009709F4B6CFEC81FD818E0F9F1F1A96C2
:103000009C938E931997AE85BF85ED91FC91119796
:10301000EE0EFF1EF70121853285148613861A965F
:103020008C91870DD9018D93711016C0EE85FF85A7
:10303000878184FF11C049855A856B857C85F9019C
:103040004183528363837483F70183859485049657
:10305000A80FB91F14861386F701B287A187D6017E
:1030600015968D919C911697892B09F443C0EE8596
:10307000FF852581368180912401909125012817B3
:10308000390779F019968D909C90612CD601129693
:103090008C911297681608F424CF1A969C928E92FF
:1030A0001997BE81BB2309F460CF61E070E0F6019F
:1030B0008781908546D4D6011796ED90FC9018979D
:1030C00015964D915C91E1E0F0E0BA81BB2311F0DF
:1030D000F0E0E0E00C811D819C01B5018827992773
:1030E0008E1B9F0B68D38C01892B21F0F601858103
:1030F0009681B0D57394D7CE0FEF1FEF8CCE10E032
:1031000000E00ECE2F923F924F925F926F927F928D
:103110008F929F92AF92BF92CF92DF92EF92FF92E7
:103120000F931F93CF93DF9380915F039091600380
:1031300010E000E0892BA9F0C7DA0AEF1FEF88231F
:1031400081F02090610330906203C0915F03D091C1
:103150006003D12CC12C10E000E02C143D04A9F434
:103160007894C801DF91CF911F910F91FF90EF905C
:10317000DF90CF90BF90AF909F908F907F906F9097
:103180005F904F903F902F900895C6010E94BC0F12
:10319000882309F18B819C810397E9F48F859889B5
:1031A000892BC9F0B60190E080E07AD221E030E0CE
:1031B000882311F030E020E044245524421A530AB9
:1031C000B12CA12C912C812C8A818815190409F02D
:1031D00038F4188A1F864FEFC41AD40A6396BDCFFD
:1031E000E881F981EA0DFB1D85819681892BA1F18A
:1031F00061E070E087819085A4D33C01D9D28C0135
:10320000E881F981EA0DFB1D818592852581368152
:10321000200F311FAC01421B530B9A01478150858F
:10322000421B530B70E060E00E94FF2AE881F981A5
:10323000EA0DFB1DE780F084458156819301B601BC
:10324000C201B9D28C01892B39F0E881F981EA0DEC
:10325000FB1D85819681FED45FEF851A950A8DE06E
:10326000A80EB11CB1CF30CA789408952F923F9226
:103270004F925F926F927F929F92AF92BF92CF9246
:10328000DF92EF92FF920F931F93CF93DF9300D0C3
:1032900000D000D0CDB7DEB700915F03109160037E
:1032A000992493940115110509F43EC0A09061037F
:1032B000B090620309DA982E8823B1F1109260036E
:1032C00010925F03109262031092610310926303E5
:1032D000109264038FEF9FEFDC0180932E01909397
:1032E0002F01A0933001B093310178947AD31E83DB
:1032F0000D83C12CD12C7601C501B0E0A0E08983FB
:103300009A83AB83BC8322242A94322C89819A81AC
:10331000AB81BC81C816D906EA06FB06F4F0C801E9
:1033200099D480E40E94FB0B892D26960FB6F89461
:10333000DEBF0FBECDBFDF91CF911F910F91FF90E8
:10334000EF90DF90CF90BF90AF909F907F906F9065
:103350005F904F903F902F900895AD81BE8115965C
:103360008D919C911697209124013091250182170F
:103370009307D1F451968D919C91E6D5ED81FE8114
:1033800080819181B12CA12C412C512C3201892BAF
:1033900089F5BFEFCB1ADB0AEB0AFB0AED81FE8150
:1033A0007396FE83ED83B2CFC114D104E104F1041E
:1033B00029F7029718F7ED81FE81818992898F3F65
:1033C000980709F021D5AD81BE8152963C922E928C
:1033D0005197D4CF8A0D9B1DDC018D919C91009754
:1033E00009F038D4BFEF4B1A5B0A6B0A7B0AEDE099
:1033F000AE0EB11CAD81BE818D919C91119712963C
:103400004C9150E070E060E0441655066606770681
:103410000CF320D4BECFCF93DF93EA0127DF8111D5
:1034200009C082E090E09983888385EF9FEFDF9168
:10343000CF91089581E090E00E94ED0B81E090E053
:103440009983888390E080E0F2CF10DF10925C03D4
:1034500010925B03089542E050E062ED71E00C943D
:103460000B0CFF920F931F93CF93DF938A01EC0114
:10347000C60FD71FF980B4D20897F816190671F055
:1034800068F082E090E0F801918380838EEF9FEFF7
:10349000DF91CF911F910F91FF9008956C817D81F5
:1034A0008E819F814B810E94A20E811108C082E013
:1034B00090E0F8019183808384EF9FEFE9CFF9805A
:1034C0000E949D0E4F2D50E0BE01685F7F4F0E940D
:1034D000F62A89810E940C0F81E090E0F801918327
:1034E000808390E080E0D4CFDF92EF92FF920F9341
:1034F0001F93CF93DF938A01EC01C60FD71F0E9461
:103500009D0E7C01D9806CD2DD2059F0029721E01C
:1035100030E0D816190619F010F030E020E0232B27
:1035200079F482E090E0F801918380838EEF9FEF41
:10353000DF91CF911F910F91FF90EF90DF90089551
:10354000EF2841F482E090E0F8019183808384EFDA
:103550009FEFEECFF9800E949D0E4F2D50E0BE01EF
:103560006E5F7F4F0E94F62A89810E940C0F81E0D6
:1035700090E0F8019183808390E080E0D9CF8BE2E6
:103580009AE19093660380936503089580916503A3
:103590009091660308950895FC011182108293832F
:1035A00082830895DB011D921C92DC011296ED913D
:1035B000FC9113977183608313967C936E9312979B
:1035C0000895FC0180819181DB018D939C93A08102
:1035D000B181109741F08D919C9191838083892BCB
:1035E00011F4F383E2830895FC0180819181DB0172
:1035F0008D939C93892B11F4738362837183608311
:103600000895FC0111821082938382830895CF93E1
:10361000DF9300D0CDB7DEB71A821982F894BE01CD
:103620006F5F7F4F8CE693E0CCDF89819A810097B2
:1036300009F010D389819A81892B89F7BE016F5FC8
:103640007F4F80E793E0BDDF89819A81009709F081
:1036500001D389819A81892B89F778940F900F90F3
:10366000DF91CF910895CF93DF9300D0CDB7DEB730
:103670001A821982F894BE016F5F7F4F88E693E04B
:10368000A0DF89819A81009709F0E4D289819A812B
:10369000892B89F778940F900F90DF91CF9108953F
:1036A00081E0089590E080E00895EF92FF920F93FB
:1036B0001F93CF93DF9300D0CDB7DEB71A82198264
:1036C0008091670307EF1FEF8823A1F1F894BE01F3
:1036D0006F5F7F4F80E793E074DF789489819A81F0
:1036E000EE24E394F12C892B51F4F894BE016F5F22
:1036F0007F4F8CE693E065DF7894F12CE12C898193
:103700009A810EEF1FEF0097A9F0FC0142815381CF
:1037100064E070E06AD68C01892B61F0F8946981CD
:103720007A81C701880F991F880F991F84599C4F70
:103730005BDF7894C8010F900F90DF91CF911F91BC
:103740000F91FF90EF9008950F931F93CF93DF9306
:1037500000D000D0CDB7DEB71C821B821A8219823E
:103760008091670307EF1FEF8823C1F0AE014D5F23
:103770005F4F64E070E0CE010196AAD68C01892BE0
:1037800069F4E981FA818B819C8193838283F89427
:1037900069817A8188E693E005DF7894C8010F900B
:1037A0000F900F900F90DF91CF911F910F9108957F
:1037B000AFD7049608958F929F92AF92BF92CF9207
:1037C000DF92EF92FF920F931F93CF93DF9300D07E
:1037D000CDB7DEB71A821982BC016F5F7F4F6330AD
:1037E000710598F0AA24AA94BA2CC5010F900F90E5
:1037F000DF91CF911F910F91FF90EF90DF90CF90CD
:10380000BF90AF909F908F9008954115510551F34F
:10381000480159018A016C01CBDF8815990511F720
:10382000E114F104F9F28E0D9F1DA816B906D0F22D
:10383000809167038823F1F0F894B5016450710911
:103840009701AE014F5F5F4FC8010496D6D65C0169
:10385000892B71F489819A81F80193838283C6014F
:10386000880F991F880F991FB80184599C4F9ADEC1
:103870007894BBCF87EFA82EBB24BA94B6CFAF9273
:10388000BF92CF92DF92EF92FF920F931F93CF934D
:10389000DF9300D0CDB7DEB71A821982892B09F0E9
:1038A00047C06115710509F443C04115510509F47C
:1038B0003FC02115310509F43BC001151105C1F1C7
:1038C000809167038823B9F179016A015B01F8945B
:1038D000BE016F5F7F4F88E693E073DE7894898145
:1038E0009A81009759F1DC0112966D917C91A801A3
:1038F00004969CD68C01E981FA81D501ED93FC9365
:10390000828193810496F6019183808351DFD701F0
:103910008D939C93C8010F900F90DF91CF911F91D1
:103920000F91FF90EF90DF90CF90BF90AF900895F0
:103930000FEF1FEFEFCF07EF1FEFECCF0EEF1FEFF3
:10394000E9CFCF93DF93EC01672B71F4EAD68C17A4
:103950009D0760F0DDD62496C80FD91FDCD68C0FEA
:103960009D1FDF91CF910895D9D6F1CF90E080E0EF
:10397000F8CF0F931F93CF93DF932091670321110B
:103980002BC08B01EC018CE693E006DE80E793E030
:1039900003DE88E693E000DE97D00097C1F4C1D63D
:1039A00070E060E0CEDF42E351E062E070E07ED1A3
:1039B000009769F48091320190913301C4D6B80127
:1039C000CE01F9D4009719F421E020936703DF9129
:1039D000CF911F910F91089584EF9FEFF8CF9EC66E
:1039E000A0C6CF93DF93A0D6EC01892B11F40FDE94
:1039F0003ADECE01DF91CF910895CF93DF9394D635
:103A0000EC01892B09F403DECE01DF91CF910895FB
:103A100080913201909133010895CF93DF9380918B
:103A20006703D0E0C0E08823D1F092D6EC01892B67
:103A3000B1F4EDDD18DE8091320190913301E4D1D3
:103A4000E5D2EC01892B59F48CE693E0DADD80E7CE
:103A500093E0D7DD88E693E0D4DD10926703CE01D2
:103A6000DF91CF910895EF92FF920F931F93CF9321
:103A7000DF93EC017A018B010F5F1F4F0E9DA001B8
:103A80000F9D500D1E9D500D112470E060E00E94AE
:103A9000FF2A90E080E0F0E0E0E02FEFE816F90682
:103AA00039F4DF91CF911F910F91FF90EF9008951E
:103AB0001A8219822883309711F0D283C18301962C
:103AC000FE01C00FD11FEACFCF92DF92EF92FF929B
:103AD0000F931F93CF93DF9300E614E00C7F43E036
:103AE00050E064E371E08AE391E012D484E3E82ECD
:103AF00081E0F82E9AE3C92E91E0D92ECFECD4E0E4
:103B0000D7014D915D917D01F601619171916F0138
:103B1000198308835D834C835B834A837F836E8331
:103B20009B012F5F3F4F249FC001259F900D349F25
:103B3000900D1124998788870115110511F0C8018E
:103B400092DF88859985080F191F2A96FAE3EF16E8
:103B5000F1E0FF06A9F6E6E7F3E087EEDF011D924C
:103B60008A95E9F710927503109274031092EE048F
:103B70001092ED041092F2041092F1041092F004ED
:103B80001092EF041092F4041092F3041092F604D1
:103B90001092F5041092F8041092F7041092FC04AD
:103BA0001092FB041092FA041092F9041092FE0491
:103BB0001092FD04109200051092FF041092CC04A4
:103BC0001092CB041092CE041092CD0490E080E0CD
:103BD000DF91CF911F910F91FF90EF90DF90CF90E9
:103BE00008950097F1F0F894AAE3B1E0EFECF4E067
:103BF00030E020E04D915D9148175907A8F04281CF
:103C000053814115510581F08AE0829FF001839F25
:103C1000F00D1124E153FB4F80819181009759F4FD
:103C2000789490E080E008952F5F3F4F3A962330DC
:103C3000310501F7F5CFDC0111966D917C9171830F
:103C400060834150510953834283FC012193CF018A
:103C500078940895009749F1DC018E91853041F404
:103C6000E091CD04F091CE043097F9F0CD010994A4
:103C70008530D8F4282F30E0F8948FEF8C938AE0C9
:103C8000829FF001839FF00D1124E153FB4F80814F
:103C9000918112969C938E931197B183A083828118
:103CA000938101969383828378940895CF92DF92D3
:103CB000EF92FF920F931F93CF93DF939C0189E7BD
:103CC00093E08C7F4115510509F49BC02115310506
:103CD00009F497C06115710509F493C07A01AB012D
:103CE000B9016D5F7F4F6C7F9B012F5F3F4F249F1A
:103CF0008001259F100D349F100D1124F894209100
:103D0000ED043091EE04232B59F42091F504309109
:103D1000F6042115310569F12017310708F058C064
:103D20002091F7043091F804232B91F42091F504AD
:103D30003091F604820F931F2091FF04309100050B
:103D40002115310509F441C02017310708F056C08C
:103D50007894CFEFDFEF86EF9FEFF701D183C08339
:103D6000DF91CF911F910F91FF90EF90DF90CF9057
:103D70000895C3E0D0E0C0907403D090750324EEA2
:103D800030E02C193D092017310710F32AE02C9F51
:103D9000F0012D9FF00D1124E153FB4F918380839F
:103DA00055834483538342837783668311870087D7
:103DB000009709F058DE0C0D1D1D1093750300933C
:103DC0007403789490E080E0C8CFC4E0D0E0D3CF13
:103DD000C3E0D0E02AE02C9FF0012D9FF00D1124CC
:103DE000E153FB4F91838083558344835383428304
:103DF00077836683009729F336DEE3CFC4E0D0E013
:103E0000E9CF8FEF9FEFACCF9C010397029708F0AB
:103E100069C0F89484E09AE0482F50E024173507F1
:103E20000CF44DC091E08AE0829FF001839FF00D79
:103E30001124E153FB4F11821082158214821382E8
:103E40001282178216829923B1F18091ED0490912C
:103E5000EE04892BA9F42091F5043091F604211584
:103E6000310571F08091740390917503821B930B5F
:103E700090937503809374031092F6041092F504E6
:103E80008091F7049091F804892BA9F42091FF0404
:103E9000309100052115310571F0809174039091E6
:103EA0007503821B930B9093750380937403109298
:103EB00000051092FF04789490E080E00895949FAC
:103EC000F001959FF00D1124E153FB4F408151818A
:103ED000452B31F440855185452B11F481509CCF01
:103EE00090E0A1CF8FEF9FEF08954115510549F163
:103EF000009739F16115710521F1F8942091CB04F7
:103F00003091CC04232BB9F42091CD043091CE0410
:103F1000232B89F49093CC048093CB047093CE042C
:103F20006093CD04789425E030E090E080E0FA01E1
:103F300031832083089578942FEF3FEF86EF9FEF32
:103F4000F6CF8FEF9FEF0895059769F4F8941092DC
:103F5000CC041092CB041092CE041092CD0478942D
:103F600090E080E008958FEF9FEF0895611571054F
:103F700019F4F0E0E0E011C08530910581F4E091A2
:103F8000CB04F091CC043097A1F3CB0101960995B5
:103F9000009779F3FC0185E08193CF0108959C019E
:103FA000235031092230310520F72AE0289FD00123
:103FB000299FB00D1124A153BB4F2D913C91119716
:103FC000232BB9F216962D913C9117972617370798
:103FD00080F2F89412962D913C911397211531059A
:103FE00029F0ED91FC911197309711F47894C1CF9D
:103FF0004181528111965C934E9321503109139661
:104000003C932E93129781937894C7CFEDE5F4E01B
:104010008EE6DF011D928A95E9F7E6E7F3E087EE89
:10402000DF011D928A95E9F71092750310927403CF
:10403000EFECF4E082E3DF011D928A95E9F7EBEC07
:10404000F4E084E0DF011D928A95E9F790E080E0DA
:104050000895CF93DF93C0914001D0914101CF3FAC
:10406000DC0759F440D4909341018093400197FFBD
:1040700009C0D0934101C093400184EF9FEFDF91CD
:10408000CF91089590E080E0FACF8230910528F436
:104090008093010590E080E008958FEF9FEF0895F1
:1040A0004F925F926F927F92AF92BF92CF92DF92C8
:1040B000EF92FF920F931F93CF93DF9300D0CDB772
:1040C000DEB71A821982009709F478C0611571056C
:1040D00009F474C0209140013091410107EF1FEFB6
:1040E0002F3F3F4F09F444C06B015C01412C512C20
:1040F0003201F12CE12C10E000E09E012F5F3F4FD8
:10410000A6014E195F09B5016E0D7F1D809140011A
:104110009091410147D4892B09F04AC089819A8145
:10412000009741F4E114F10429F4209101052223C0
:1041300009F441C0E80EF91EEC14FD04C8F480E84F
:10414000481684E858068EE16806710418F560E0A8
:1041500070E0CB01A1D62AE0420E511C611C711CFB
:104160000A3F4FEF140721F0043F8FEF1807A1F427
:10417000C8010F900F90DF91CF911F910F91FF9089
:10418000EF90DF90CF90BF90AF907F906F905F9057
:104190004F90089501EF1FEF81E090E0013F2FEF76
:1041A000120711F090E080E0892B09F4A6CFE0CF50
:1041B00004EF1FEFDDCF0AEF1FEFDACF0FEF1FEF96
:1041C000D7CF4F925F926F927F92AF92BF92CF9272
:1041D000DF92EF92FF920F931F93CF93DF9300D064
:1041E000CDB7DEB71A821982009709F478C061153D
:1041F000710509F474C0209140013091410107EF2D
:104200001FEF2F3F3F4F09F444C06B015C01412C6D
:10421000512C3201F12CE12C10E000E09E012F5FC7
:104220003F4FA6014E195F09B5016E0D7F1D8091AC
:104230004001909141016CD3892B09F04AC08981DA
:104240009A81009741F4E114F10429F420910105C9
:10425000222309F441C0E80EF91EEC14FD04C8F451
:1042600080E4481682E458068FE06806710418F569
:1042700060E070E0CB0110D62AE0420E511C611CB8
:10428000711C0E3F4FEF140721F0043F8FEF18070A
:10429000A1F4C8010F900F90DF91CF911F910F9162
:1042A000FF90EF90DF90CF90BF90AF907F906F9096
:1042B0005F904F90089502EF1FEF81E090E0023F82
:1042C0002FEF120711F090E080E0892B09F4A6CFC0
:1042D000E0CF04EF1FEFDDCF0EEF1FEFDACF0FEFD0
:1042E0001FEFD7CF80914001909141018F3F9807F8
:1042F00049F0F1D2892B49F48FEF9FEF9093410160
:104300008093400190E080E0089584EF9FEF08954E
:10431000CF92DF92EF92FF920F931F93CF93DF9391
:1043200021E04115510509F020E0415051092111CA
:104330002CC0DC01FB01D12CC12C21E022C03FEFBD
:10434000C31AD30A7D010D911D91E701EA80FB801C
:10435000E016F106A8F420813181E280F380F18239
:10436000E08233832283ED90FC9011979D012250CF
:104370003109E901F982E88211961C930E9320E03D
:104380003296C416D506D8F2D2CFDF91CF911F91C5
:104390000F91FF90EF90DF90CF900895FC01680F90
:1043A000791F90E080E0E617F70709F4089521915E
:1043B000820F911DF8CF20910205211113C049DE13
:1043C000009791F4109208051092070510920605C7
:1043D00010920505109204051092030521E0209328
:1043E0000205089584EF9FEF0895AF92BF92CF9298
:1043F000DF92EF92FF920F931F93CF93DF9300977B
:1044000009F460C04630510508F45CC020910205F3
:10441000C7EFDFEF222309F449C08C01060F171FF5
:10442000F801C080D180C114D10409F44EC09601B6
:104430002A5F3F4F4217530708F447C07C01809121
:1044400007059091080593838283B6016C5F7F4FC7
:104450005801A60EB71EC801A1DFF5019183808324
:1044600064E070E0C8011CDEEC01892BF9F481E006
:1044700090E00BDEB601C801049612DEEC01892B38
:1044800091F462E070E0C5010BDEEC01892B59F478
:10449000C701E0DB80910705909108050196909394
:1044A00008058093070590E080E0EFDDCE01DF9105
:1044B000CF911F910F91FF90EF90DF90CF90BF9021
:1044C000AF900895CFEFDFEFF1CFC9EFDFEFEECF81
:1044D0006F927F928F929F92AF92BF92CF92DF9214
:1044E000EF92FF920F931F93CF93DF9300D000D0F2
:1044F000CDB7DEB7009709F47AC04115510509F42C
:1045000076C02091020507EF1FEF222309F44DC06A
:104510003A017B015C0164E070E0CE01019651DE5E
:104520008C01892B09F041C009811A8101151105FF
:1045300009F45AC0480186E0880E911CB701680D45
:10454000791D809142019091430110DD6C0100972B
:1045500009F450C0A70170E060E00E94FF2A898141
:104560009A81AB81BC81EC0CFD1CF7018193919386
:10457000A193B1937F0181E090E087DDB801C7018D
:1045800020DE892B31F562E070E0C701800F911FBA
:1045900018DE8C01892BE9F490E080E076DDF501EE
:1045A000D182C082F30191828082C8010F900F9066
:1045B0000F900F90DF91CF911F910F91FF90EF908F
:1045C000DF90CF90BF90AF909F908F907F906F9033
:1045D000089590E080E059DDF50111821082F30129
:1045E00011821082C60136DB09EF1FEFDECF0FEF1D
:1045F0001FEFDBCF06EF1FEFD8CF0097A1F04115DB
:10460000510589F02115310571F0F90136966E17C3
:104610007F0748F0DC012D933C93DA01ED93FC9386
:1046200090E080E008958FEF9FEF0895AF92BF92E2
:10463000CF92DF92EF92FF920F931F93CF93DF936E
:10464000009709F45FC04115510509F45BC065305E
:10465000710508F457C020910205C7EFDFEF222350
:1046600091F1DC01CD90DC9011971296ED91FC91C7
:1046700096012A5F3F4FC9EFDFEF2617370719F57D
:10468000C0910305D0910405209749F521E030E061
:1046900030930405209303057A018C01F0930605FD
:1046A000E09305055601B4E0AB0EB11CB50176DE12
:1046B0000A0D1B1DF801208131818217930729F50E
:1046C000D701CD92DC92CE01DF91CF911F910F9156
:1046D000FF90EF90DF90CF90BF90AF900895209122
:1046E0000505309106052F5F3F4FCCEFDFEFE21756
:1046F000F30790F2CBEFDFEF2E173F0768F2D0E021
:10470000C0E0CACFCFEFDFEFDECFC3EFDFEFDBCF0D
:1047100084E090E0089582E090E008958CEF9FEFB0
:10472000089580E290E00895109208051092070520
:1047300010920605109205051092040510920305CB
:1047400090E080E0089590934301809342010895A2
:1047500080910205882391F0C5DD009789F41092BD
:104760000805109207051092060510920505109293
:1047700004051092030510920205089590E080E070
:104780000895009749F06115710531F0FC0111821F
:104790001082FB01118210820895F3CF26E030E0F1
:1047A00040E855E260E070E090E080E000C01092E8
:1047B0000A051092090589309105E0F48E519C4D4F
:1047C000FC01F5C6EB23F423FB23FE230124042480
:1047D00007240A24102481E090E090930A05809336
:1047E000090588E195E09BC582E090E090930A0579
:1047F00080930905089584E090E0F8CF88E090E088
:10480000F5CF80E190E0F2CF80E290E0EFCF80E45E
:1048100090E0ECCF80E890E090930A058093090542
:104820008091090590910A059160E0CF1F920F9247
:104830000FB60F9211242F933F934F935F936F9373
:104840007F938F939F93AF93BF93EF93FF9386E0F4
:104850009FEF9093850080938400B7D0FF91EF91F4
:10486000BF91AF919F918F917F916F915F914F9188
:104870003F912F910F900FBE0F901F90189586E0DB
:104880009FEF9093850080938400AFE6B0E08C9119
:104890008E7F8C93E0E8F0E080818C7F8083E1E87C
:1048A000F0E08081877E8083808183608083808147
:1048B0008B7F80838C9181608C930895EFE6F0E08C
:1048C000808190819E7F90838170089581E008951A
:1048D00010920B05089568EE73E080E090E0DCD262
:1048E00090E080E0089526E030E040E052EC61E0A6
:1048F00070E090E080E05BDF88E195E046D4892BB2
:1049000021F088E195E05BD4F7CF90E080E0089556
:10491000CF92DF92EF92FF920F931F93CF93DF938B
:104920006B017A01E9011982188288E195E02DD4A2
:10493000892B69F18601CC24C39482E0D82E809122
:104940000B05811110C088E195E039D40297B9F7C1
:10495000C0920B05F801D1928F018881998101964F
:1049600099838883ECCF888199818E159F0578F48F
:1049700088E195E024D48F3F9807A9F3F80181934B
:104980008F0188819981019699838883ECCF90E08B
:1049900080E0DF91CF911F910F91FF90EF90DF901A
:1049A000CF9008950F931F93CF93DF93EA0189016E
:1049B00088E195E098D5F801D183C08390E080E04C
:1049C000DF91CF911F910F91089580910C0591E097
:1049D000980F90930C05882349F021E030E0309344
:1049E0000E0520930D0580930C05089578940E9480
:1049F000AD03F89480910C058150F5CF0F931F9370
:104A0000CF93DF931092CE051092CD057BD2C6DEF8
:104A1000C0915801D09159011982188260EA76E854
:104A200081E090E00E94A20370E060E090E080E00E
:104A30000E942302009709F042C00E94AE04F8943D
:104A400078948A819B81BC01685F7F4F0E94260217
:104A5000892B71F46FEF7FEFCB010E94B6020E94A9
:104A60009C03882329F081E0FE01E355FF4F8083FA
:104A7000F89405DF0E949F03882311F080E00BC0AB
:104A80000E949C038111FACF81E0FE01E355FF4FA4
:104A900090819111F3CF8093CD0578940E94E80B1B
:104AA0008C017894C355DF4F8091CD0581110CC0E6
:104AB0000E947C050E948203F89490E080E0DF91E0
:104AC000CF911F910F9108950E9480030E949F0330
:104AD0008823D9F081E08093CE059091CE0581E0C6
:104AE000911180E08093CD058091CE058111E6DEA5
:104AF0000130110529F40E94E80B892B09F4E8DE46
:104B00000E94E80B8C01E2DECFCF0E949C03811152
:104B1000E1CF81E098819111DECF80E0DCCF71D0D0
:104B200008F481E0089504D06894B111B1C00895EB
:104B300094D088F09F5790F0B92F9927B751A0F0E3
:104B4000D1F0660F771F881F991F1AF0BA95C9F721
:104B500012C0B13081F09BD0B1E0089598C0672FAA
:104B6000782F8827B85F39F0B93FCCF386957795D1
:104B70006795B395D9F73EF49095809570956195BA
:104B80007F4F8F4F9F4F0895E89409C097FB3EF4E5
:104B900090958095709561957F4F8F4F9F4F99238A
:104BA000A9F0F92F96E9BB279395F6958795779508
:104BB0006795B795F111F8CFFAF4BB0F11F460FFC8
:104BC0001BC06F5F7F4F8F4F9F4F16C0882311F020
:104BD00096E911C0772321F09EE8872F762F05C034
:104BE000662371F096E8862F70E060E02AF09A95CF
:104BF000660F771F881FDAF7880F9695879597F9C4
:104C00000895990F0008550FAA0BE0E8FEEF16165D
:104C10001706E807F907C0F012161306E407F507B0
:104C200098F0621B730B840B950B39F40A2661F024
:104C3000232B242B252B21F408950A2609F4A140C7
:104C4000A6958FEF811D811D089557FD9058440F43
:104C5000551F59F05F3F71F04795880F97FB991FDB
:104C600061F09F3F79F08795089512161306140698
:104C7000551FF2CF4695F1DF08C016161706180625
:104C8000991FF1CF86957105610508940895E89400
:104C9000BB2766277727CB0197F90895B2DF08F481
:104CA0008FEF08950BD078C069D028F06ED018F03F
:104CB000952309F05AC05FC01124EACFC6DFA0F3E4
:104CC000959FD1F3950F50E0551F629FF001729FA1
:104CD000BB27F00DB11D639FAA27F00DB11DAA1FC0
:104CE000649F6627B00DA11D661F829F2227B00D0D
:104CF000A11D621F739FB00DA11D621F839FA00D98
:104D0000611D221F749F3327A00D611D231F849FE7
:104D1000600D211D822F762F6A2F11249F5750403E
:104D20008AF0E1F088234AF0EE0FFF1FBB1F661FD9
:104D3000771F881F91505040A9F79E3F510570F092
:104D400014C0A6CF5F3FECF3983EDCF386957795D1
:104D50006795B795F795E7959F5FC1F7FE2B880F8D
:104D6000911D9695879597F9089597F99F6780E823
:104D700070E060E008959FEF80EC089500240A94AD
:104D80001616170618060906089500240A94121626
:104D90001306140605060895092E0394000C11F459
:104DA000882352F0BB0F40F4BF2B11F460FF04C006
:104DB0006F5F7F4F8F4F9F4F08951F920F920FB6D7
:104DC0000F9211242F933F938F939F93AF93BF9391
:104DD0008091100590911105A0911205B0911305D5
:104DE00030910F0523E0230F2D3758F50196A11DB3
:104DF000B11D20930F058093100590931105A0938A
:104E00001205B09313058091140590911505A0919A
:104E10001605B09117050196A11DB11D80931405CB
:104E200090931505A0931605B0931705BF91AF9108
:104E30009F918F913F912F910F900FBE0F901F90D8
:104E4000189526E8230F0296A11DB11DD2CF3FB7BA
:104E5000F8948091140590911505A0911605B091D4
:104E6000170526B5A89B05C02F3F19F00196A11D77
:104E7000B11D3FBFBA2FA92F982F8827BC01CD01A4
:104E8000620F711D811D911D42E0660F771F881F03
:104E9000991F4A95D1F708958F929F92AF92BF9232
:104EA000CF92DF92EF92FF926B017C01D0DF4B013A
:104EB0005C01C114D104E104F104D9F041D3C7DF8E
:104EC000681979098A099B09683E73408105910533
:104ED00080F321E0C21AD108E108F10888EE880EBB
:104EE00083E0981EA11CB11CC114D104E104F1049B
:104EF00031F7FF90EF90DF90CF90BF90AF909F90F1
:104F00008F900895789484B5826084BD84B5816063
:104F100084BD85B5826085BD85B5816085BDEEE6C1
:104F2000F0E0808181608083E1E8F0E010828081A0
:104F300082608083808181608083E0E8F0E080810E
:104F400081608083E1EBF0E0808184608083E0EB2E
:104F5000F0E0808181608083EAE7F0E08081846016
:104F60008083808182608083808181608083808172
:104F7000806880831092C10008958E3008F08E50B2
:104F80002091440190E4299F900111248770822B85
:104F900080937C0080917A00806480937A00809175
:104FA0007A0086FDFCCF8091780090917900089579
:104FB0001F93CF93DF93182FEB0161E07DD02097F3
:104FC00031F460E0812FDF91CF911F91B1C0CF3FCD
:104FD000D10511F461E0F6CFE12FF0E0E859FF4F81
:104FE000E491E33031F140F4E130B1F0E230E1F04E
:104FF000C038D1057CF7E5CFE73029F1E83059F129
:10500000E430B1F780918000806280938000D0937B
:105010008B00C0938A0004C084B5806884BDC7BD7E
:10502000DF91CF911F91089584B5806284BDC8BD82
:10503000F7CF80918000806880938000D0938900B2
:10504000C0938800EDCF8091B00080688093B0005D
:10505000C093B300E5CF8091B00080628093B00030
:10506000C093B400DDCF833081F028F4813099F013
:105070008230A9F008958730A9F08830C9F08430D3
:10508000B1F4809180008F7D03C0809180008F7784
:1050900080938000089584B58F7784BD089584B58A
:1050A0008F7DFBCF8091B0008F778093B000089503
:1050B0008091B0008F7DF9CFCF93DF9390E0FC011A
:1050C000E458FF4F249180579F4FFC01849188231F
:1050D000C9F090E0880F991FFC01E255FF4FA591A0
:1050E000B491FC01EC55FF4FC591D49161110DC0F5
:1050F0009FB7F8948C91209582238C9388812823E4
:1051000028839FBFDF91CF910895623051F49FB7FC
:10511000F8943C91822F809583238C93E8812E2BE9
:10512000EFCF8FB7F894EC912E2B2C938FBFEACF53
:105130001F93CF93DF93282F30E0F901E859FF4FF9
:105140008491F901E458FF4FD491F901E057FF4FE2
:10515000C491CC23A1F0162F811185DFEC2FF0E054
:10516000EE0FFF1FEC55FF4FA591B4918FB7F89448
:10517000EC91111108C0D095DE23DC938FBFDF9135
:10518000CF911F910895DE2BF8CFFC01918D228DD8
:10519000892F90E0805C9F4F821B91098F73992724
:1051A0000895FC01918D828D981731F0828DE80F62
:1051B000F11D858D90E008958FEF9FEF0895FC011C
:1051C000918D828D981761F0A28DAE0FBF2FB11D0A
:1051D0005D968C91928D9F5F9F73928F90E0089562
:1051E0008FEF9FEF0895FC01538D448D252F30E004
:1051F000842F90E0821B930B541710F0CF960895E4
:1052000001970895FC01A48DA80FB92FB11DA35AD1
:10521000BF4F2C91848D90E001968F739927848FD6
:10522000A689B7892C93A089B1898C9183708064F9
:105230008C93938D848D981306C00288F389E02D9A
:1052400080818F7D80830895CF93DF93EC01888DDB
:105250008823B1F0AA89BB89E889F9898C9185FDF9
:1052600003C0808186FD0CC00FB607FCF7CF8C9180
:1052700085FFF2CF808185FFEDCFCE01C3DFEACF7E
:10528000DF91CF910895EF92FF920F931F93CF93E9
:10529000DF93EC0181E0888F9B8D8C8D98131AC071
:1052A000E889F989808185FF15C09FB7F894EE8958
:1052B000FF896083E889F9898081837080648083B5
:1052C0009FBF81E090E0DF91CF911F910F91FF9000
:1052D000EF900895F62E0B8D10E00F5F1F4F0F73A8
:1052E0001127E02E8C8D8E110BC00FB607FCFACF64
:1052F000E889F989808185FFF5CFCE0183DFF2CF80
:10530000EB8DEC0FFD2FF11DE35AFF4FF0829FB79D
:10531000F8940B8FEA89FB8980818062D0CFCF928D
:10532000DF92EF92FF921F93CF93DF93EC016A011C
:105330007B01122FE889F98982E08083C11481EE14
:10534000D806E104F10499F060E079E08DE390E0A3
:10535000A70196010AD121503109410951095695F9
:10536000479537952795211580E1380790F0E88912
:10537000F989108260E874E88EE190E0A701960157
:10538000F4D0215031094109510956954795379577
:105390002795EC85FD853083EE85FF852083188E6B
:1053A000EC89FD891083EA89FB8980818061808393
:1053B000EA89FB89808188608083EA89FB89808112
:1053C00080688083EA89FB8980818F7D8083DF917B
:1053D000CF911F91FF90EF90DF90CF9008951F9293
:1053E0000F920FB60F9211242F938F939F93EF93E9
:1053F000FF93E0912805F09129058081E0912E0529
:10540000F0912F0582FD1BC09081809131058F5F47
:105410008F7320913205821741F0E0913105F0E061
:10542000E85EFA4F958F80933105FF91EF919F9140
:105430008F912F910F900FBE0F901F901895808124
:10544000F4CF1F920F920FB60F9211242F933F9318
:105450004F935F936F937F938F939F93AF93BF937C
:10546000EF93FF9388E195E0CDDEFF91EF91BF913F
:10547000AF919F918F917F916F915F914F913F91EC
:105480002F910F900FBE0F901F901895E8E1F5E057
:105490001382128288EE93E0A0E0B0E084839583CB
:1054A000A683B78382EE91E09183808385EC90E0C0
:1054B0009587848784EC90E09787868780EC90E0DE
:1054C000918B808B81EC90E0938B828B82EC90E0CF
:1054D000958B848B86EC90E0978B868B118E128E49
:1054E000138E148E0895AF92BF92CF92DF92EF92F7
:1054F000FF920F931F93CF93DF936C017B018B017E
:10550000040F151FEB015E01AE18BF08C017D107CD
:1055100059F06991D601ED91FC910190F081E02D57
:10552000C6010995892B79F7C501DF91CF911F91AC
:105530000F91FF90EF90DF90CF90BF90AF900895C4
:105540000895AA1BBB1B51E107C0AA1FBB1FA617CA
:10555000B70710F0A61BB70B881F991F5A95A9F71C
:1055600080959095BC01CD010895A1E21A2EAA1B49
:10557000BB1BFD010DC0AA1FBB1FEE1FFF1FA21703
:10558000B307E407F50720F0A21BB30BE40BF50B00
:10559000661F771F881F991F1A9469F76095709589
:1055A000809590959B01AC01BD01CF010895EE0F50
:1055B000FF1F0590F491E02D0994A29FB001B39FC5
:1055C000C001A39F700D811D1124911DB29F700D0C
:1055D000811D1124911D0895F0DFA59F900DB49FAA
:1055E000900DA49F800D911D11240895FB01DC01F5
:1055F00002C001900D9241505040D8F70895DC014F
:1056000001C06D9341505040E0F70895F894FFCFEA
:105610000000003F000000000000803F000000008C
:105620000000803F00004C4228A001FEFFFFFF0168
:10563000E8030000FFFF00000000FFFFFFFFFFFF87
:10564000FFFFFFFF010001000100200038001000F3
:10565000FFFFFFFF01466978656453746570446914
:1056600073637265746500012C02FF003F0E6B0EC0
:10567000FE00250EA30BFD00B70D110EFC00FD0D65
:10568000A30BF600EE0EA30BF500C40D2D0FF400D6
:10569000B70E440FDE0072130C16DD00E114A30BED
:1056A000DA0014111C11D90027162C11E200FC0F8E
:1056B000A30BE1003710A30BE000AC10A30BD60046
:1056C0000B1AA30BD500C112A30BD4004D12A30BD0
:1056D000D300BE11A30BDC003B11A30BC000431190
:1056E000A30BF000741AA30BED00311AA30B0000FA
:1056F00000004329732AF3282429C528DF28D1284C
:00000001FF
