:100000005CC0000082C0000080C000007EC0000014
:100010007CC000007AC0000078C0000076C00000FC
:1000200074C0000072C0000070C000006EC000000C
:100030006CC000000C94342468C0000066C000004E
:100040000C94602762C000000C94722A0C94A42ABD
:100050005CC000005AC0000058C0000056C000003C
:1000600054C0000052C0000000000008000201005F
:100070000003040700000000000000000102040863
:100080001020408001020408102001020408102002
:10009000040404040404040402020202020203032E
:1000A0000303030300000000250028002B000000CC
:1000B0000000240027002A00C92A11241FBECFEF08
:1000C000D8E0DEBFCDBF11E0A0E0B1E0E6E1F7E5AA
:1000D00002C005900D92A43FB107D9F725E0A4EF27
:1000E000B1E001C01D92A33DB207E1F710E0CDE5FC
:1000F000D0E004C02197FE010E945A2BCC35D107D5
:10010000C9F70E941C250C94892B7ACFCF93DF93DB
:10011000882349F0EB0181500E944028998388830D
:10012000DF91CF910895FB0111821082F9CF0F93D7
:100130001F938B019C0183E03695279517950795B2
:100140008A95D1F703501E4F462F477021E030E0CB
:10015000F90102C0EE0FFF1F4A95E2F7AF01F80167
:1001600020812423CB010196211102C090E080E080
:100170001F910F9108950F931F938B019C0183E0B2
:1001800036952795179507958A95D1F7677081E081
:1001900090E001C0880F6A95EAF7F801E350FE4F3E
:1001A0002081452B31F48095822380831F910F910C
:1001B0000895822BFACFCF92DF92EF92FF92CF93E6
:1001C000DF936B017C0160E08EE0C816D104E1048E
:1001D000F10490F48EE08C0D0E94DF28E601219658
:1001E000AE01C701B601C7DFCE01DF91CF91FF900D
:1001F000EF90DF90CF9008958C2DEECF882341F0C3
:100200008150682F70E090E080E050E040E0B3CF94
:100210000895CF93282F8823E1F0CB01BA01CFEFC7
:10022000C20FEC2FF0E0EA5FFD4F2081213059F43E
:1002300090580E941B269B01AC016C2F70E090E04F
:1002400080E0CF91A2C00E9416268C2FCF910C94F3
:100250005B28CF9108950F931F938B019C0183E03E
:1002600036952795179507958A95D1F70C501E4F0F
:10027000462F477021E030E0F90102C0EE0FFF1F6A
:100280004A95E2F7AF01F80120812423CB010196C2
:10029000211102C090E080E01F910F9108950F930B
:1002A0001F938B019C0183E0369527951795079541
:1002B0008A95D1F7677081E090E001C0880F6A9558
:1002C000EAF7F801EC50FE4F2081452B31F4809580
:1002D000822380831F910F910895822BFACF4F9232
:1002E0005F926F927F928F929F92AF92BF92CF92C6
:1002F000DF92EF92FF920F931F93CF93DF934B0107
:100300005C0129013A01670161E0882D0E94DF2824
:10031000E4012196AE01C501B401C1DF20E030E067
:10032000A901C801B6010E94F92618168CF4F4013F
:10033000EA5FFD4F81E08083C801B6010E941B2661
:100340006B01C301B2010E941B26A601C40121D08A
:10035000CE01DF91CF911F910F91FF90EF90DF9031
:10036000CF90BF90AF909F908F907F906F905F9055
:100370004F900895882341F08150682F70E090E0FD
:1003800080E050E040E08BCF0895862FB9010C94B7
:100390005B289C01FC01E859FF4FE491E33061F1D7
:1003A00040F4E13011F1E23021F160E0822F0C9451
:1003B0001B29E730C1F1E83009F441C0E430A9F766
:1003C000809180008C7F826080938000909181007A
:1003D000907E9061692B60938100509387004093D9
:1003E00086008091800080621BC084B5806884BDD7
:1003F000DCCF84B58062FBCF809180008C7F8260EF
:100400008093800090918100907E9061692B609331
:10041000810050938700409386008091800080681F
:1004200080938000C2CF8091B00080688093B0003C
:100430008091B100887F682B6093B100B6CF809126
:10044000B0008062F3CF90E080E008950F931F9397
:10045000009709F488C06115710509F484C0009102
:100460001F011091200120912101309122010E3FA6
:100470001F4F2F4F3F4F09F068C0DB014D915D9139
:100480006D917C9140931F01509320016093210155
:100490007093220140911F01509120016091210130
:1004A00070912201DC011296ED91FC918081918185
:1004B000A281B3818093150390931603A093170331
:1004C000B093180384819581A681B781809311032D
:1004D00090931203A0931303B09314038085918526
:1004E000A285B38580930D0390930E03A0930F0311
:1004F000B093100384859585A685B78580930903FD
:1005000090930A03A0930B03B0930C03109205037E
:100510001092060310920703109208036FD583E22E
:1005200098E090931B0280931A0290931D0280938F
:100530001C0253D4009731F421E030E030931A03C9
:10054000209319031F910F91089500911F0110919D
:1005500020012091210130912201FB0100831183B0
:100560002283338397CF8FEF9FEFECCF8F929F92B1
:10057000AF92BF92CF92DF92EF92FF921F93CF93F1
:10058000DF934B015C0110911C0382E090E090939B
:100590001A038093190381149104A104B10441F456
:1005A00080911C03811104C080911B03C1E0811163
:1005B000C0E0C12CD12C760180911C03811106C0B2
:1005C00080911B03811102C0CC23D9F083E090E01D
:1005D00090931A0380931903CC2379F1CCE9DFEFD0
:1005E000111102C00E94880BCE01DF91CF911F91A3
:1005F000FF90EF90DF90CF90BF90AF909F908F9043
:1006000008956AE070E080E090E00E94CF2780E1EA
:10061000C80E87E2D81EE11CF11C8FEF88169806E1
:10062000A806B80631F0C1E08C149D04AE04BF04E6
:1006300008F0C0E080E005D4BFCFD0E0C0E0D0CF6C
:10064000CF92DF92EF92FF920F931F93CF93DF939E
:100650008F3F910511F008F050C02091190330919F
:100660001A032330310539F02091190330911A0310
:100670002130310531F424E030E030931A03209327
:1006800019036A017B01EC0182309105A0F011E0B1
:10069000AE01C701B601A0D3AB01BC01CE0111234D
:1006A000F9F0DF91CF911F910F91FF90EF90DF90C4
:1006B000CF900C94AD0D8C01000F111F065E1D4FE5
:1006C000D8018D919C91892B11F30E94B70D02974F
:1006D000F1F6D801ED91FC91CE010995182FD8CFF4
:1006E0000E94CF0D90E080E0DF91CF911F910F919C
:1006F000FF90EF90DF90CF9008958FEF9FEFF4CFB2
:1007000080E09FC3CF93DF9386E090E090931A033D
:1007100080931903EFD3EC01EAE1F2E084E0DF011A
:100720001D928A95E9F78CD710921A03109219033B
:10073000CE01DF91CF91089580911B0308958091A0
:100740000403089560931F01709320018093210199
:100750009093220190E080E00895CF92DF92EF9293
:10076000FF920F931F93CF93DF9300D0CDB7DEB7E7
:1007700080911E01813009F0FFC0E091DE02F0910E
:10078000DF0220910001309101014091020150915E
:10079000030160817181828193810E94122687FF0B
:1007A000E2C08091040190910501A0910601B091F1
:1007B00007018093B9059093BA05A093BB05B09348
:1007C000BC056FE070E080E090E0B1DC9093C8057C
:1007D0008093C70543E050E0BE016F5F7F4F96DC1A
:1007E00020911C0130911D01A981BA810E94602BCA
:1007F0006093BD057093BE058093BF059093C005BF
:1008000065E070E080E090E026DD8C019093D005FB
:100810008093CF056091BD057091BE058091BF05A5
:100820009091C0050E94472620E030E040E054E36C
:100830000E94FD269B01AC016091B9057091BA053B
:100840008091BB059091BC050E94AD2520911001BF
:100850003091110140911201509113010E94FD2627
:10086000209114013091150140911601509117010A
:100870000E94FD26209118013091190140911A0122
:1008800050911B010E94FD266B017C0120E030E0AD
:100890004FE753E40E94122618160CF476C020E0AD
:1008A00030E0A901C701B6010E94F92687FF03C005
:1008B000C12CD12C7601B701A601C801AADC409158
:1008C000D3025091D4026091D5027091D60281E09A
:1008D00090E0B6DE6091CB027091CC028091CD02A7
:1008E0009091CE026F5F7F4F8F4F9F4F6093CB02EF
:1008F0007093CC028093CD029093CE020091DE02E1
:100900001091DF020E9447269B01AC016091CF024B
:100910007091D0028091D1029091D2020E94FD2666
:10092000F80160837183828393838091D3029091D5
:10093000D402A091D502B091D6020196A11DB11D9D
:100940008093D3029093D402A093D502B093D602A1
:100950000F900F90DF91CF911F910F91FF90EF902B
:10096000DF90CF9008958091080190910901A091A6
:100970000A01B0910B011DCF80910C0190910D01E6
:10098000A0910E01B0910F0114CFC12CD12C8FE793
:10099000E82E83E4F82E8FCF8F929F92AF92BF9272
:1009A000DF92EF92FF920F931F93CF93DF93E0E3D9
:1009B000F2E08BED92E097838683CEEDD2E0D09388
:1009C0007102C09370020FEC12E0158B048BF09350
:1009D0009B02E0939A02F583E48321E030E0DC019E
:1009E0002D933C931092B1021092B80289E491E0E9
:1009F0009387828780EE92E09983888340E050E07D
:100A000060E571E44093D7025093D8026093D90215
:100A10007093DA0247E157EB61ED78E3D8014D932B
:100A20005D936D937C931397C9EBD2E084EB91EEC9
:100A3000A2E0B3E288839983AA83BB838DE099E423
:100A4000A7E9B5E78093BD029093BE02A093BF02D1
:100A5000B093C0028FE49FEFAFE1B0EE8093C1028C
:100A60009093C202A093C302B093C40284EC92EBB1
:100A7000A5EAB7E48093C5029093C602A093C7028B
:100A8000B093C802A4E2B2E0B383A283EEE1F2E045
:100A90001196FC93EE938BE591E091838083938391
:100AA00082839583848389EC92E015969C938E9340
:100AB00014971396DC93CE93129740ED5BEF61E0B1
:100AC00070E018964D935D936D937C931B97C1ECEA
:100AD000D5E01882812C912C5401839489829A82CA
:100AE000AB82BC826FE070E080E090E064DB9F83CB
:100AF0008E83DD24D394DD82188689869A86AB8620
:100B0000BC86E12CF12C8701A801970165E070E01B
:100B100080E090E0E4DB9F878E87DD86DF91CF91D8
:100B20001F910F91FF90EF90DF90BF90AF909F903B
:100B30008F9008958091C10581111DC081E080933F
:100B4000C1058091C2059091C305A091C405B091E3
:100B5000C5050197A105B10571F48091C6058823EB
:100B600051F06FE070E080E090E0E1DA9093C8052A
:100B70008093C70543DB8091C90581112AC081E0BC
:100B80008093C9058091CA059091CB05A091CC05B1
:100B9000B091CD050197A105B105D9F48091CE059D
:100BA0008823B9F065E070E080E090E054DB90933A
:100BB000D0058093CF0540E050E0BA012ADB65E024
:100BC00070E080E090E047DB9093D0058093CF0504
:100BD000D1CB08954F925F926F927F928F929F92A6
:100BE000AF92BF92CF92DF92EF92FF920F931F933B
:100BF000F8944090F4025090F5026090F6027090E4
:100C0000F702C090E802D090E902E090EA02F0908A
:100C1000EB024130510509F0A4C09B01AC0124193D
:100C200035094609570929013A010091F00210914E
:100C3000F1022091F2023091F30248015901840C33
:100C4000951CA61CB71C80169106A206B306A0F43C
:100C50000091EC021091ED022091EE023091EF0232
:100C60000F5F1F4F2F4F3F4F0093EC021093ED0289
:100C70002093EE023093EF028092F0029092F10204
:100C8000A092F202B092F3020091EC021091ED02F8
:100C90002091EE023091EF028092F8029092F902D8
:100CA000A092FA02B092FB020093FC021093FD02A4
:100CB0002093FE023093FF026093F4027093F502DA
:100CC0008093F6029093F702A4E6B0E0A3019201AC
:100CD0000E946F2B6C0D7D1D8E1D9F1D6093E80281
:100CE0007093E9028093EA029093EB0200911F0156
:100CF0001091200120912101309122010F3F1F4FBF
:100D00002F4F3F4FF1F000911F01109120012091D2
:100D10002101309122010E3F1F4F2F4F3F4F89F08D
:100D2000C0901F01D0902001E0902101F09022019D
:100D300021E08C149D04AE04BF0408F420E020934D
:100D4000040378941F910F91FF90EF90DF90CF9064
:100D5000BF90AF909F908F907F906F905F904F90DB
:100D600008954B015C0184189508A608B708A301F3
:100D70009201261B370B480B590B64157505860528
:100D80009705D0F082169306A406B50640F420E03D
:100D900030E0A90181149104A104B10491F4A4E606
:100DA000B0E00E946F2BA7019601261B370B480B62
:100DB000590BCA01B901C5CF82169306A406B50620
:100DC00070F7A4E6B0E0A50194010E946F2B6C0DB2
:100DD0007D1D8E1D9F1DB5CFFDCECF93DF9300D01F
:100DE00000D0CDB7DEB71C821B821A821982109206
:100DF0000003109201031092020310920303BE013C
:100E00006F5F7F4FCE0103960E94DF2369817A8155
:100E10008B819C810E94D71C009761F4BE016F5F9B
:100E20007F4FCE0103960E94EB2369817A818B81EB
:100E30009C8129D50F900F900F900F90DF91CF914B
:100E40000895FF920F931F93CF93DF93082F60E0D5
:100E500070E0CB010E94CF27FF24F3940E94C21BB5
:100E6000EC01892B89F010E0CE3F8FEFD80769F0B5
:100E7000002361F160E070E0CB010E94CF2781E0A8
:100E800090E0892B59F322C011E020D5EC01892B89
:100E900021F0CE3F8FEFD80759F711111EC011E096
:100EA000229609F410E00E94731BEC01892B21F0BB
:100EB000CE3F8FEFD807E1F6111111C011E0CE3F00
:100EC0008FEFD80709F410E001110BC0CE01DF91BC
:100ED000CF911F910F91FF90089511E0E4CF11E0A1
:100EE000F3CF60E070E0CB010E94CF271F25812F58
:100EF00090E0C7CFCF93DF9380910403882321F044
:100F000060E070E0CB0149D632D6D0E0C0E0892B5A
:100F100071F06AE070E080E090E00E94CF2781E00D
:100F200090DF25D62196C03D27E0D20781F724D651
:100F30000E942B1D10921C0310921B03109215038C
:100F400010921603109217031092180310921103B7
:100F500010921203109213031092140310920D03B7
:100F600010920E0310920F031092100310920903B7
:100F700010920A0310920B0310920C0310920503B7
:100F80001092060310920703109208034EEF5FEFD2
:100F90006FEF7FEF40931F01509320016093210179
:100FA0007093220110920403E8EFF2E028E0DF01E1
:100FB0001D922A95E9F71092F4021092F502109210
:100FC000F6021092F7021092F0021092F1021092C3
:100FD000F2021092F3021092EC021092ED021092C3
:100FE000EE021092EF021092E8021092E9021092C3
:100FF000EA021092EB02DF91CF910895109228033C
:101000001092290310922A0310922B0310922703A7
:1010100080913003909131039093260380932503B0
:10102000109224031092230310921F0310922003A6
:10103000109221031092220310922D0310922C0380
:1010400090E080E00895CF92DF92EF92FF920F93AD
:101050001F93CF938C01019709F055C02091300365
:101060003091310380912503909126034091300304
:1010700050913103509326034093250328173907D5
:1010800081F0109224031092230310921F031092F8
:101090002003109221031092220310922D0310922C
:1010A0002C038091300390913103019761F5809179
:1010B0002C0390912D03892B21F480912301811120
:1010C00012C080912C0390912D030197E1F480913F
:1010D0001F0390912003A0912103B0912203019757
:1010E000A105B10581F410921F0310922003109204
:1010F0002103109222031092230182E090E090934A
:101100002D0380932C03809130039091310301973C
:1011100009F01CC180914603909147038017910705
:1011200009F014C18091420390914303A0914403BC
:10113000B0914503009709F409C1209141032111A1
:101140000DC040914203509143036091440370915C
:101150004503452B462B472B09F4F8C020912C035F
:1011600030912D032230310509F0F0C02091230386
:101170002111ECC0FC01C080D180E280F38080911D
:101180002703882309F4D3C080913303909134035B
:10119000892B09F4FEC0209133033091340381E0A0
:1011A0002230310509F080E020913303309134037F
:1011B000C1E02130310549F02091330330913403EF
:1011C000C1E02230310509F0C0E0882309F456C09F
:1011D00020913D0330913E0340913F0350914003E5
:1011E000C701B6010E94F92687FD14C020913D0376
:1011F00030913E0340913F0350914003609128039A
:101200007091290380912A0390912B030E9412264A
:1012100087FD22C020913D0330913E0340913F0362
:1012200050914003C701B6010E94F926181634F503
:1012300020913D0330913E0340913F035091400384
:10124000609128037091290380912A0390912B03C8
:101250000E941226811112C08091350390913603AD
:10126000A0913703B0913803892B8A2B8B2B19F46B
:1012700081E08093240381E080932303CC2309F44D
:1012800056C020913D0330913E0340913F03509161
:101290004003C701B6010E94122687FF14C02091A7
:1012A0003D0330913E0340913F03509140036091D4
:1012B00028037091290380912A0390912B030E94A7
:1012C000F92687FF22C020913D0330913E034091D3
:1012D0003F0350914003C701B6010E9412268111BD
:1012E00026C020913D0330913E0340913F03509131
:1012F0004003609128037091290380912A03909103
:101300002B030E94F926181694F4809135039091CE
:101310003603A0913703B0913803892B8A2B8B2B8E
:1013200019F481E08093240381E08093230381E01A
:1013300090912303911180E080932703C0922803AA
:10134000D0922903E0922A03F0922B030130110579
:1013500009F067C180912C0390912D03892BD9F45A
:10136000109232031092230380912301882379F095
:1013700082E090E090932D0380932C031092230140
:10138000209130033091310381E0232BE9F080E09C
:101390001BC081E009CF1092230180913203882382
:1013A00049F01092240310922D0310922C031092F6
:1013B0003203EDCF8091300390913103892BE1F01E
:1013C000809123031092230320912C0330912D034D
:1013D0002230310509F45EC088F42115310509F485
:1013E00048C02130310509F4F3C010922403109253
:1013F00023031092320338C081E0E6CF2330310559
:1014000009F4B1C02430310581F740911F03509198
:10141000200360912103709122034115510561055C
:10142000710561F0415051096109710940931F0331
:1014300050932003609321037093220340911F0374
:10144000509120036091210370912203452B462B7C
:10145000472BD9F420912E0330912F0321303105F1
:1014600009F046C01092240310922D0310922C0311
:101470000CC080912301882341F082E090E090939A
:101480002D0380932C031092230110921D03809151
:101490002403CEC08823C9F380913503909136038D
:1014A000A0913703B0913803181619061A061B06C7
:1014B0000CF07DC08091300390913103019709F0C9
:1014C00076C08091350390913603A0913703B09197
:1014D000380380931F0390932003A0932103B093BC
:1014E000220383E090E090932D0380932C03CDCFD3
:1014F0004091390350913A0360913B0370913C0352
:10150000452B462B472BA9F01092240380913903D9
:1015100090913A03A0913B03B0913C0380931F0349
:1015200090932003A0932103B093220381E090E0E5
:10153000DACF882399F08091240190912501A09120
:101540002601B091270180931F0390932003A0935D
:101550002103B093220384E090E0C5CF10922403CE
:1015600082E090E0C0CF80911F0390912003A09172
:101570002103B09122030097A105B10559F001970D
:10158000A109B10980931F0390932003A093210325
:10159000B093220380911F0390912003A091210317
:1015A000B0912203892B8A2B8B2B09F06ECF80916F
:1015B000240190912501A0912601B0912701892B4A
:1015C0008A2B8B2B09F44ECF81E080932403B3CF79
:1015D00040911F03509120036091210370912203D9
:1015E000411551056105710561F0415051096109CD
:1015F000710940931F03509320036093210370935C
:10160000220340911F0350912003609121037091A8
:101610002203452B462B472B09F037CF8111C7CF2B
:101620009FCF80911D03882309F431CF80911E0341
:10163000CF911F910F91FF90EF90DF90CF90089581
:10164000109228031092290310922A0310922B0360
:101650001092270310922D0310922C031092260350
:101660001092250310924703109246031092240310
:101670001092230310921F03109220031092210353
:101680001092220310921E0310921D031092420327
:1016900010924303109244031092450310924103A9
:1016A00010923D0310923E0310923F0310924003AC
:1016B00088EE93E0A0E0B0E08093240190932501B0
:1016C000A0932601B09327011092390310923A0398
:1016D00010923B0310923C03109235031092360394
:1016E0001092370310923803109234031092330390
:1016F00081E0809323011092320310923103109203
:10170000300310922F0310922E0390E080E0089592
:101710008091300390913103892BE1F48091230172
:10172000882351F080913203811106C081E08093BB
:101730001E0380931D03089580913203882341F096
:1017400080912301811104C010921E0381E0F1CF2A
:1017500010921D03089582E090E0FA019183808346
:101760008FEF9FEF0895CF93DF93EA01009711F079
:101770000E94481E1982188290E080E0DF91CF918C
:101780000895DB01009719F48FEF8C9308952EEFE5
:101790002C9340968031910508F036C0FC01ED5243
:1017A000F44F0C945A2B020C000CFE0BFC0BFA0BA2
:1017B000F80BF40BF60BF20BF00BEE0BEB0BE70B4D
:1017C000E30BE90B040C80E311968C93089589E2F6
:1017D000FBCF82E2F9CF11961C92089583E2F4CFF9
:1017E00081E2F2CF81E1F0CF87E2EECF8AE2ECCF67
:1017F00080E1EACF84E2E8CF88E2E6CF86E2E4CF78
:1018000081E3E2CF83E3E0CF80E2DECF8091540337
:101810009091550308959093550380935403089530
:1018200080915303089590915303892B8093530320
:101830000895982F909580915303892380935303A3
:10184000089580915203089580915003909151031F
:1018500008956115710559F0FB0130E020E070E05A
:1018600060E02417350719F06115710511F0CB01FF
:101870000895A081B181A817B90709F4BF012F5FAE
:101880003F4F3696EECF8091560381111CC062D235
:1018900068D290934903809348030E944D160E949A
:1018A0005F1690934D0380934C030E94DD1A0E94B3
:1018B000E41A90934B0380934A0381E0809356038C
:1018C00090E080E0089584EF9FEF08958F929F92BB
:1018D000AF92BF92CF92DF92EF92FF920F931F933E
:1018E000CF93DF93CDB7DEB72A970FB6F894DEBF5C
:1018F0000FBECDBF1A86198618861F821E821D82D2
:101900001C821B821A8219828091560307EF1FEFF7
:10191000882309F49CC08E010D5F1F4F9E012B5F31
:101920003F4FAE01495F5F4FBE01675F7F4F90E061
:1019300080E00E945D1C8C01009721F005960297C3
:1019400008F0DBC029853A852115310509F402C16B
:10195000ED80FE804B815C81B701640F751F8F8124
:1019600098858617970708F4F5C0E20EF31ED70195
:101970009C91903C09F07FC04230510508F47BC037
:1019800011968C914091540350915503452B09F4C5
:101990009CC0913F08F071C02CE1290F2D3008F454
:1019A0008BC02DE2290F203108F489C0903C21F42E
:1019B0008150823008F483C088E3890F8B3008F4AB
:1019C00081C091ECC92E9BE0D92EEBEAFBE06D8142
:1019D0007E81AE014F5F5F4F89859A8509955C01D5
:1019E000C114D104A1F189809A808114910479F104
:1019F0008B819C818815990508F487C010E000E070
:101A00004B815C8170E060E0C7010E94822B011570
:101A10001105E9F449815A8169857A858D819E8114
:101A2000680F791FC501F6010995E980FA800D81DB
:101A30001E812F81388549855A856FEF7FEF81E0C0
:101A400090E00E94F91B8C01892B09F056C0C80157
:101A50002A960FB6F894DEBF0FBECDBFDF91CF91AF
:101A60001F910F91FF90EF90DF90CF90BF90AF90BC
:101A70009F908F90089580E085CF30E020E0220F86
:101A8000331FF901E85BFC4F0190F081E02D3097A6
:101A900009F497CF892F90E00995009709F491CF29
:101AA000DC011296ED91FC9113971496CD90DC9089
:101AB000309709F08CCF1FC021E030E0E0CF22E06A
:101AC00030E0DDCF23E030E0DACFD12CC12CE3EBE6
:101AD000FBE09F3F09F07BCFE0914803F091490381
:101AE000309721F4C90104EF1FEF0CC08FEF90E095
:101AF00009950097A9F604EF1FEF89859A8500974D
:101B000009F4A5CF0E94481EA2CF0E94261D8C0179
:101B100089859A850E94481E70E060E0C4010E9499
:101B2000BF1C98878F830E94F61B9E838D836F81D5
:101B300078856115710559F0C8010E94D41F9A87F4
:101B4000898706EF1FEF892B09F058CF59CF08EF8F
:101B50001FEF56CF08EF1FEFD0CF2091560322235F
:101B600019F020E00C94641687EF9FEF08958091A0
:101B700054039091550308950E94E91A0E94431A54
:101B8000F5D0E8E4F3E088E0DF011D928A95E9F7FB
:101B90001092560390E080E008950C94A01821E084
:101BA00040E050E0BA010C94641686E090E0FA013F
:101BB0009183808390E080E0089547E050E06EE5F7
:101BC00071E047CEDF92EF92FF920F931F93CF9376
:101BD000DF938A01EC01C60FD71FE0905A03F09003
:101BE0005B03D9800E940E1DD816190678F082E09A
:101BF00090E0F801918380838EEF9FEFDF91CF918A
:101C00001F910F91FF90EF90DF900895EF2841F41E
:101C100082E090E0F8019183808384EF9FEFEECF24
:101C200089818093590390E00196F8019183808324
:101C300090E080E0E3CFCF93DF93EA010E94511957
:101C4000882321F00E941B1D0E94521982E090E01F
:101C5000998388838BEF9FEFDF91CF910895CF9386
:101C6000DF93EB0186E0FB0111928A95E9F78FEF94
:101C70008883D6DD8983E5DD8A83E6DD9D838C83D9
:101C8000DF91CF910895CF93DF93EA010E94541919
:101C9000811109C082E090E09983888385EF9FEFEE
:101CA000DF91CF91089590E080E0B5DD81E090E094
:101CB0009983888390E080E0F3CF0F931F93CF93B5
:101CC000DF93EA018C01060F171F0E94541981113E
:101CD0000BC082E090E09983888385EF9FEFDF91CE
:101CE000CF911F910F910895F8018181823038F0D2
:101CF00082E090E0998388838EEF9FEFF0CF81E0C0
:101D000090E089DD88E090E09983888390E080E02E
:101D1000E6CFCF93DF930097D1F4EB01FB0132962E
:101D200086E0DF011D928A95E9F78FEF888385E0D1
:101D300089831A820E940E1D8B830E940D1D9D8334
:101D40008C8381E08E838F83DF91CF910895DF9123
:101D5000CF9117CD8DED9DE090935803809357035D
:101D60000895809157039091580308951092580355
:101D700010925703089580915A0390915B03089540
:101D8000411105C0611571058105910561F06093F0
:101D90005A0370935B0380935C0390935D034093BD
:101DA0005E0381E0089580E00895FF920F931F93F2
:101DB000CF93DF938A01EC01C60FD71FF9800E94F1
:101DC0000E1DF816190668F082E090E0F801918384
:101DD00080838EEF9FEFDF91CF911F910F91FF9046
:101DE00008956C817D818E819F814B81C9DF811136
:101DF00008C082E090E0F8019183808384EF9FEF38
:101E0000EACF89818093590390E00196F80191838C
:101E1000808390E080E0DFCFCF93DF93EA01FC0185
:101E2000E60FF71F64817581868197814381A8DF62
:101E3000811109C082E090E09983888384EF9FEF4D
:101E4000DF91CF91089581E090E09983888390E0BD
:101E500080E0F6CFEAE5F3E0408151816281738151
:101E6000480F511D611D711D40835183628373832F
:101E70000895CF93C09159034C2F50E060915A03BD
:101E800070915B0301960E94792B8C2FE3DF1092F7
:101E90005903CF910895009799F480915A03909136
:101EA0005B032FEFFB012083892B59F0209159030D
:101EB00030E02F5F3F4F2417350719F4CB01D9CFFE
:101EC00060CC0895009799F480915A0390915B0338
:101ED0002FEFFB012083892B59F02091590330E02B
:101EE0002F5F3F4F2417350719F4CB01C2CF49CCE0
:101EF000089523E1AC01249FC001259F900D11247A
:101F0000E0916303F0916403E80FF91F23813481AA
:101F10002250310981E02230310508F080E0089537
:101F20000F931F93CF93DF93009165031091660386
:101F3000D0E0C0E080E00C171D0749F491E081116A
:101F400090E0892FDF91CF911F910F91089581111A
:101F5000F5CFCE01CEDF2196EECFA0916303B091F5
:101F60006403109729F1209165033091660382176D
:101F70009307F0F453E1589F9001599F300D1124BD
:101F8000A20FB31FED91FC911197309789F0129633
:101F90008C91681768F48DE0689FE00DF11D1124A5
:101FA00080819181892B21F081E09281491708F08D
:101FB00080E008959C0143E1429FC001439F900D42
:101FC0001124E0916303F0916403E80FF91F838506
:101FD000823091F481E090E0658176814091280122
:101FE000509129016417750711F490E080E0892B66
:101FF00019F081E0232B09F080E00895FC01A08115
:10200000B1818DE0689FA00DB11D112413964D91F3
:102010005C9185859685489F9001499F300D589F1A
:10202000300D1124C9010196611103C0478144FD9F
:1020300004960895EF92FF920F931F93CF93DF932F
:10204000EA01FC01E60FF71F02811381E480F580AD
:102050004F2D6E2DC80181DF81110DC082E090E00F
:10206000998388838EEF9FEFDF91CF911F910F911E
:10207000FF90EF900895C8013CDF882339F082E09B
:1020800090E09983888388EF9FEFEECF10932F0124
:1020900000932E01E0923001F092310181E090E056
:1020A0009983888390E080E0DFCFCF92DF92EF9238
:1020B000FF920F931F93CF93DF937A01EC01C60F2A
:1020C000D71FC0902E01D0902F01009130011091A8
:1020D0003101412F602FC60140DF811110C082E025
:1020E00090E0F701918380838AEF9FEFDF91CF919A
:1020F0001F910F91FF90EF90DF90CF900895C60150
:10210000F8DE882341F082E090E0F701918380833C
:1021100088EF9FEFEBCF4C815D816E817F819A814B
:1021200089818F3F41F082E090E0F70191838083C5
:102130008EEF9FEFDBCFE3E1EC9D9001ED9D300D45
:102140001124E0916303F0916403E20FF31F019007
:10215000F081E02D2DE0029FE00DF11D1124019092
:10216000F081E02D27E0129FE00DF11D1124808306
:1021700091838B81828343835483658376831F5F3E
:102180001093310181E090E0F7019183808390E02A
:1021900080E0ACCFEF92FF920F931F93CF93DF932A
:1021A0007A018C01060F171FC0916303D09164035D
:1021B000209781F021E030E0F80182819381409105
:1021C0006503509166038417950710F030E020E016
:1021D000232B71F482E090E0F701918380838EEFEE
:1021E0009FEFDF91CF911F910F91FF90EF90089596
:1021F00043E1489F9001499F300D1124C20FD31F26
:1022000078DE882341F082E090E0F70191838083BB
:1022100088EF9FEFE6CFF801248135812038310522
:10222000C8F687818111D6CF4181842F90E08F7EBF
:10223000009741F082E090E0F7019183808386EF80
:102240009FEFCFCF4F833E832D832681288719862A
:10225000223010F421E0288721E030E0F7013183BB
:102260002083BFCF88E090E0FA019183808390E0E3
:1022700080E00895FB018FEF808381E181838FEF00
:102280009FEF9383828380E890E095838483168216
:1022900017820895FB018FEF808391E09183828301
:1022A0009383848384E3858381E090E097838683AE
:1022B000089582E090E0FA019183808380EF9FEFA0
:1022C0000895DF92EF92FF920F931F93CF93DF93C6
:1022D000EA01FC01E60FF71F8181813071F082E095
:1022E00090E0998388838FEF9FEFDF91CF911F91CB
:1022F0000F91FF90EF90DF90089582819381D480B9
:102300002581E680F7800091630310916403011535
:10231000110539F482E090E0998388838CEF9FEF78
:10232000E4CF40916503509166038417950738F018
:1023300082E090E0998388838EEF9FEFD6CF892B40
:1023400039F082E090E09983888386EF9FEFCDCFCC
:102350008D2D8D7FB1F72130A1F781E0D11006C01E
:1023600091E0E916F10431F080E004C0E2E0EE16FD
:10237000F104D0F3882329F390E080E0BADD8823CC
:1023800039F082E090E09983888388EF9FEFADCFAA
:10239000F801D38681E08487F686E586108A178661
:1023A00081E090E09983888390E080E09ECF4DE0CB
:1023B00050E068E871E04DCA8F929F92BF92CF9231
:1023C000DF92EF92FF920F931F93CF93DF93EA0177
:1023D000FC01E60FF71F828193810481B580E091B3
:1023E0006303F0916403309791F482E090E0998365
:1023F00088838CEF9FEFDF91CF911F910F91FF901A
:10240000EF90DF90CF90BF909F908F900895209194
:102410006503309166038217930738F082E090E0FD
:10242000998388838EEF9FEFE6CF23E1289F600199
:10243000299FD00C1124EC0DFD1DE080F180E114EA
:10244000F10499F28281081748F78DE0089F800116
:102450001124E00EF11EF70180819181892B29F66C
:10246000BB20E1F2F7E0BF9E40011124C4010E94AD
:102470000F1EF70191838083E0916303F091640361
:10248000EC0DFD1D0190F081E02DE00FF11F80812A
:102490009181009739F482E090E0998388838DEFF1
:1024A0009FEFA9CFA40170E060E00E94822B809191
:1024B000630390916403C80ED91EF6018081918157
:1024C000080F191FF801B28281E090E09983888398
:1024D00090E080E090CFAF92BF92CF92DF92FF92D8
:1024E0000F931F93CF93DF93EA01FC01E60FF71FD1
:1024F00082819381F480009163031091640301153C
:10250000110581F482E090E0998388838CEF9FEF3E
:10251000DF91CF911F910F91FF90DF90CF90BF90EF
:10252000AF90089520916503309166038217930759
:1025300038F082E090E0998388838EEF9FEFE8CFB8
:102540002FEF2F0D2C3FA8F723E1289F6001299F33
:10255000D00C11240C0D1D1DF80180819181892B57
:1025600089F6FDE0FF9E50011124C5010E940F1E57
:10257000F80191838083E0916303F0916403EC0D93
:10258000FD1D80819181009739F482E090E099836C
:1025900088838DEF9FEFBCCFA50170E060E00E94C3
:1025A000822BE0916303F0916403EC0DFD1DF28238
:1025B00081E090E09983888390E080E0A9CFCF927A
:1025C000DF92EF92FF920F931F93CF93DF93860FCB
:1025D000971FFC0102811381809163039091640332
:1025E000892B81F082E090E0FA01918380838CEF67
:1025F0009FEFDF91CF911F910F91FF90EF90DF90B0
:10260000CF900895C801B0E0A0E00197A109B109F9
:102610008F3F9F4FA105B10540F082E090E0FA01A5
:10262000918380838EEF9FEFE4CF7A0183E1809FD7
:102630006001819FD00C1124C6010E940F1EEC0185
:10264000009741F482E090E0F701918380838DEF61
:102650009FEFCFCFA60170E060E00E94822BD09365
:102660006403C0936303109366030093650390E0D3
:1026700080E02FEF3FEF41E061E070E080179107CD
:1026800041F481E090E0F7019183808390E080E065
:10269000B0CF3A8B298B1B864C877E876D87188A33
:1026A0001F8601966396EACFEF92FF921F93CF9316
:1026B000DF93EC0110E0F12CE12C6A811617A8F0F1
:1026C00070E0660F771FAE014F5E5F4FC7010E943B
:1026D000741E009721F02FEF3FEF3A8B298BDF918B
:1026E000CF911F91FF90EF900895612FCE0186DC6E
:1026F00061E070E00E94BF1CE816F90608F47C0156
:102700001F5FDBCFF894209161033091620381E079
:102710002115310509F080E0232B09F07894089504
:102720002F923F924F925F926F927F928F929F92E1
:10273000AF92BF92CF92DF92EF92FF920F931F93CF
:10274000CF93DF933C01660E771EF3018281938164
:102750004C01B12CA12CC0916303D091640320974C
:1027600069F021E030E0609165037091660386179F
:10277000970710F030E020E0232BD1F482E090E0C6
:10278000FA01918380838EEF9FEFDF91CF911F91AC
:102790000F91FF90EF90DF90CF90BF90AF909F9000
:1027A0008F907F906F905F904F903F902F90089503
:1027B0008092320190923301A0923401B09235019F
:1027C00063E1689F9001699F300D1124C20FD31FF0
:1027D000F3018181833040F082E090E0FA0191833F
:1027E000808386EF9FEFD1CF2A012B813C81232B61
:1027F000F1F4288139819F8191FF2EC0232B09F4A8
:102800006FC0209168039A81422F490F5527551FA9
:10281000BA0141E050E06138710514F050E040E049
:10282000452B09F45DC02A87920F9093680381506D
:10283000823008F481C066DF882309F4D8C0F30130
:102840008181813009F48DC008F47BC0823009F4A5
:10285000C6C090E080E0ADC0232B09F441C02091B8
:1028600067039A81E22FE90FFF27FF1F41E050E045
:10287000ED3FF10514F050E040E0452B89F12A8747
:10288000920F90936703D3CFA081B181A20FB31FA2
:1028900011966C91060F111D0196295F3F4F841709
:1028A000950794F38D859E85089F1001099F300C34
:1028B000189F300C1124C114D104D1F48F8184FFEE
:1028C00017C00E940D1DF5E02F0E311C21E082156E
:1028D000930508F420E0A701435F5F4F21110EC06C
:1028E00082E090E0F2019183808387EF9FEF4DCFEC
:1028F0000E940D1D2FEF221A320AE8CF888199819C
:10290000E80EF91EF70114830383FFEFCF1ADF0AE5
:102910007A018A818C151D0409F00CF48CCFE881B2
:10292000F981EE0DFF1D428150E030E020E010E023
:1029300000E090E080E0B3CFF12CE12CD12CC12C51
:10294000E8CF81E090E09C838B83EADA882309F466
:1029500080CF81E090E00E940B0C80E40E94190C73
:1029600078CF89899A89019661F083E090E09C8311
:102970008B8382E090E00E940B0C80E40E94130C99
:1029800068CF8D819E812091280130912901821785
:102990009307D1F460912C0170912D01AE014F5E2F
:1029A0005F4F80912A0190912B010E94931F009705
:1029B000E1F2789422E030E0F20131832083892B28
:1029C00099F08DEF9FEFE1CE89288A288B2869F650
:1029D000029758F6CE0168DE188A1F86E8CF82E09B
:1029E00090E09C838B8335CF90E080E0CECE82E078
:1029F00090E0F2019183808385EF9FEFC6CE8F92A6
:102A00009F92AF92BF92CF92DF92EF92FF920F937D
:102A10001F93CF93DF93EA018C01060F171FF80174
:102A20008181833098F082E090E09983888386EFFB
:102A30009FEFDF91CF911F910F91FF90EF90DF906B
:102A4000CF90BF90AF909F908F9008958091630337
:102A500090916403892B61F081E090E020916503FF
:102A600030916603232B11F490E080E0892B39F438
:102A700082E090E0998388838EEF9FEFDACF42DE89
:102A8000882309F4E0C0F8018181813009F496C0FF
:102A9000E8F0823099F42091650330916603E0916B
:102AA0006303F091640390E080E041E050E0281778
:102AB000390709F0BEC034DA811117C0789481E07B
:102AC00090E09983888390E080E0B3CF2091650304
:102AD00030916603E0916303F091640390E080E03D
:102AE00041E050E02817390741F481E090E00E946E
:102AF0000B0C80E40E94190CE1CF63817481672B79
:102B000011F05483438301967396ECCFE0916303F5
:102B1000F0916403E00FF11F2381348122303105ED
:102B2000D9F4218932892F3F3F4FB1F42581368175
:102B300040912801509129012417350761F5AF0113
:102B40004F5E5F4F60912C0170912D0180912A01A1
:102B500090912B010E94931FEFEFCE1ADE0AEE0A2E
:102B6000FE0A0D5E1F4F409165035091660370E0B1
:102B700060E0C416D506E606F70644F5009731F284
:102B80007894892B09F49BCF82E090E09983888325
:102B90008DEF9FEF4ECFC114D104E104F104E1F6B3
:102BA00022303105C8F6CF017FDDE0916303F0915B
:102BB0006403E00FF11F108A1786CECF10E000E00B
:102BC00090E080E0C12CD12C7601CDCF0097C1F6EA
:102BD00010E000E0812C912C540183E0E82EF12CD0
:102BE0001AC0E0916303F0916403E00FF11F838149
:102BF0009481029749F4F482E38282E090E00E949B
:102C00000B0C80E40E94130CFFEF8F1A9F0AAF0A8F
:102C1000BF0A0D5E1F4F8091650390916603B0E07F
:102C2000A0E088169906AA06BB06DCF290E080E0D8
:102C3000A7CF638174816230710511F4548343839B
:102C40000196739634CF82E090E09983888385EF74
:102C50009FEFEFCE0097B9F48FEFFB0180832091B7
:102C600032013091330143E1429FC001439F900DF7
:102C70001124E0916303F0916403E80FF91F82854A
:102C8000FB01818308950C94C10B88E090E0FA0168
:102C90009183808390E080E0089510926203109207
:102CA0006103E3E6F3E086E0DF011D928A95E9F730
:102CB00087ED91E19093600380935F030895809185
:102CC0005F039091600308952F923F924F925F921D
:102CD0006F927F928F929F92AF92BF92CF92DF922C
:102CE000EF92FF920F931F93CF93DF93CDB7DEB791
:102CF0002F970FB6F894DEBF0FBECDBFF894E091CA
:102D00006103F09162033196F0936203E0936103F3
:102D1000789440906303509064034114510409F483
:102D20000CC2E0916503F0916603EF2B09F405C234
:102D30002D8749875A876B877C8798878F831201F5
:102D4000B12CA12C10E000E0809165039091660306
:102D5000A816B90618F40115110529F1F894809107
:102D600061039091620301979093620380936103E2
:102D70007894C8012F960FB6F894DEBF0FBECDBF72
:102D8000DF91CF911F910F91FF90EF90DF90CF9047
:102D9000BF90AF909F908F907F906F905F904F907B
:102DA0003F902F9008957101E418F508D10117960E
:102DB0008C91179781FD54C013968D919C91149717
:102DC000039709F04DC015968D919C91EF81F88580
:102DD0008E179F0709F044C0B50190E080E07ED4D3
:102DE0008A8320916303309164033D832C833D8566
:102DF000332309F44CC04C815D81452B09F49AC101
:102E00008091650390916603A816B90608F092C1F7
:102E1000C501D0D88823E9F06C817D816E0D7F1DBE
:102E20007D836C83DB011F968D919C91892B89F0AA
:102E3000D12CC12CF12CE12CAC81BD8112968C914E
:102E400012978E151F0409F094F450961C921E924E
:102E50001F972A81222321F0B50190E080E040D421
:102E60003FEFA31AB30A43E1240E311C6DCFAC81AE
:102E7000BD81ED91FC91EC0DFD1D8581968108D7FA
:102E8000BFEFEB1AFB0AEDE0CE0ED11CD5CFEC81E3
:102E9000FD81309709F44EC18091650390916603DE
:102EA000A816B90608F046C1EE0DFF1DFF87EE8794
:102EB000C50180D88B83882339F1AE85BF851F96E5
:102EC0008D919C915097019621E01D964D915C91BA
:102ED0008417950709F020E02E831982712C10E0E9
:102EE00000E0AE85BF8512968C91781608F45DC01F
:102EF000EE85FF85878590890196658576850E9498
:102F0000242B908B8787A5CFB1E0BE83E6CF992491
:102F100093946BC084D6F6019683858382C0D601D4
:102F2000ED90FC90B7E06B9EE00CF11C1124F701D2
:102F30006381748180818F3F61F121E030E002C0C4
:102F4000220F331F8A95E2F7C901092E000CAA0B44
:102F5000BB0BFB01408151816281738184239523E6
:102F6000A623B72321E0892B8A2B8B2B09F420E0A1
:102F7000D4012C93D70111968C91F60123853485C9
:102F8000820F932F911D880E991E148613866394C9
:102F90009BC0418150E0C4010E94792BEBCF998204
:102FA00006EF1FEFC5C01982C3C0F981F111A0CF90
:102FB000EDE07E9E70011124AE85BF85CD90DC9042
:102FC000CE0CDF1C13D49D838C83BB81BB2309F4FF
:102FD0009ECF81E0EE85FF8527853089232B09F080
:102FE00080E0982E882309F458C0672D8E859F8530
:102FF00005D8D60118969C938E93179761E070E0E0
:10300000BED4EE85FF85218932892F3F320709F42E
:1030100081CFBC01C901C8D7D60116969C938E9367
:103020001597D60115968D919C911697009709F4E6
:10303000B6CFEC81FD818E0F9F1F1A969C938E93C5
:103040001997AE85BF85ED91FC911197EE0EFF1E8D
:10305000F70121853285148613861A968C91870D87
:10306000D9018D93711016C0EE85FF85878184FF8D
:1030700011C049855A856B857C85F901418352834E
:1030800063837483F701838594850496A80FB91F21
:1030900014861386F701B287A187D60115968D9104
:1030A0009C911697892B09F443C0EE85FF852581F5
:1030B000368180912801909129012817390779F0EC
:1030C00019968D909C90612CD60112968C91129736
:1030D000681608F424CF1A969C928E921997BE8196
:1030E000BB2309F460CF61E070E0F6018781908531
:1030F00046D4D6011796ED90FC90189715964D91F1
:103100005C91E1E0F0E0BA81BB2311F0F0E0E0E097
:103110000C811D819C01B501882799278E1B9F0B6F
:1031200068D38C01892B21F0F60185819681B0D579
:103130007394D7CE0FEF1FEF8CCE10E000E00ECED1
:103140002F923F924F925F926F927F928F929F92B7
:10315000AF92BF92CF92DF92EF92FF920F931F93A5
:10316000CF93DF93809163039091640310E000E0BC
:10317000892BA9F0C7DA0AEF1FEF882381F020908E
:10318000650330906603C0916303D0916403D12C32
:10319000C12C10E000E02C143D04A9F47894C8017F
:1031A000DF91CF911F910F91FF90EF90DF90CF9023
:1031B000BF90AF909F908F907F906F905F904F9057
:1031C0003F902F900895C6010E94DA0F882309F1DD
:1031D0008B819C810397E9F48F859889892BC9F0AD
:1031E000B60190E080E07AD221E030E0882311F04F
:1031F00030E020E044245524421A530AB12CA12C7B
:10320000912C812C8A818815190409F038F4188AC8
:103210001F864FEFC41AD40A6396BDCFE881F981A7
:10322000EA0DFB1D85819681892BA1F161E070E09B
:1032300087819085A4D33C01D9D28C01E881F981A2
:10324000EA0DFB1D8185928525813681200F311F76
:10325000AC01421B530B9A0147815085421B530B13
:1032600070E060E00E94822BE881F981EA0DFB1D8D
:10327000E780F084458156819301B601C201B9D23D
:103280008C01892B39F0E881F981EA0DFB1D8581DC
:103290009681FED45FEF851A950A8DE0A80EB11CC9
:1032A000B1CF30CA789408952F923F924F925F9297
:1032B0006F927F929F92AF92BF92CF92DF92EF92E6
:1032C000FF920F931F93CF93DF9300D000D000D0D5
:1032D000CDB7DEB7009163031091640399249394F2
:1032E0000115110509F43EC0A0906503B090660376
:1032F00009DA982E8823B1F11092640310926303C7
:10330000109266031092650310926703109268038F
:103310008FEF9FEFDC018093320190933301A093F4
:103320003401B093350178947AD31E830D83C12C78
:10333000D12C7601C501B0E0A0E089839A83AB83EC
:10334000BC8322242A94322C89819A81AB81BC814E
:10335000C816D906EA06FB06F4F0C80199D480E441
:103360000E94190C892D26960FB6F894DEBF0FBE69
:10337000CDBFDF91CF911F910F91FF90EF90DF9024
:10338000CF90BF90AF909F907F906F905F904F9045
:103390003F902F900895AD81BE8115968D919C919F
:1033A0001697209128013091290182179307D1F4B3
:1033B00051968D919C91E6D5ED81FE818081918120
:1033C000B12CA12C412C512C3201892B89F5BFEF56
:1033D000CB1ADB0AEB0AFB0AED81FE817396FE83B2
:1033E000ED83B2CFC114D104E104F10429F70297AF
:1033F00018F7ED81FE81818992898F3F980709F046
:1034000021D5AD81BE8152963C922E925197D4CF58
:103410008A0D9B1DDC018D919C91009709F038D499
:10342000BFEF4B1A5B0A6B0A7B0AEDE0AE0EB11CD4
:10343000AD81BE818D919C91119712964C9150E077
:1034400070E060E044165506660677060CF320D45B
:10345000BECFCF93DF93EA0127DF811109C082E05D
:1034600090E09983888385EF9FEFDF91CF91089556
:1034700081E090E00E940B0C81E090E099838883CA
:1034800090E080E0F2CF10DF1092600310925F03B3
:10349000089542E050E066ED71E00C94290CFF9233
:1034A0000F931F93CF93DF938A01EC01C60FD71FB1
:1034B000F980B4D20897F816190671F068F082E026
:1034C00090E0F801918380838EEF9FEFDF91CF91A1
:1034D0001F910F91FF9008956C817D818E819F8156
:1034E0004B810E94C00E811108C082E090E0F8017B
:1034F0009183808384EF9FEFE9CFF9800E94BB0E18
:103500004F2D50E0BE01685F7F4F0E94792B89816B
:103510000E942A0F81E090E0F8019183808390E07F
:1035200080E0D4CFDF92EF92FF920F931F93CF935F
:10353000DF938A01EC01C60FD71F0E94BB0E7C01EE
:10354000D9806CD2DD2059F0029721E030E0D81606
:10355000190619F010F030E020E0232B79F482E016
:1035600090E0F801918380838EEF9FEFDF91CF9100
:103570001F910F91FF90EF90DF900895EF2841F495
:1035800082E090E0F8019183808384EF9FEFEECF9B
:10359000F9800E94BB0E4F2D50E0BE016E5F7F4F41
:1035A0000E94792B89810E942A0F81E090E0F80126
:1035B0009183808390E080E0D9CF89E49AE1909371
:1035C0006A038093690308958091690390916A0367
:1035D00008950895FC0111821082938382830895D7
:1035E000DB011D921C92DC011296ED91FC91139768
:1035F0007183608313967C936E9312970895FC01F8
:1036000080819181DB018D939C93A081B181109782
:1036100041F08D919C9191838083892B11F4F383E8
:10362000E2830895FC0180819181DB018D939C935D
:10363000892B11F473836283718360830895FC0185
:1036400011821082938382830895CF93DF9300D0F9
:10365000CDB7DEB71A821982F894BE016F5F7F4F33
:1036600080E793E0CCDF89819A81009709F010D33D
:1036700089819A81892B89F7BE016F5F7F4F84E72B
:1036800093E0BDDF89819A81009709F001D3898198
:103690009A81892B89F778940F900F90DF91CF91C1
:1036A0000895CF93DF9300D0CDB7DEB71A82198289
:1036B000F894BE016F5F7F4F8CE693E0A0DF8981B5
:1036C0009A81009709F0E4D289819A81892B89F740
:1036D00078940F900F90DF91CF91089581E0089535
:1036E00090E080E00895EF92FF920F931F93CF93A5
:1036F000DF9300D0CDB7DEB71A82198280916B03B9
:1037000007EF1FEF8823A1F1F894BE016F5F7F4F91
:1037100084E793E074DF789489819A81EE24E394BE
:10372000F12C892B51F4F894BE016F5F7F4F80E735
:1037300093E065DF7894F12CE12C89819A810EEF7A
:103740001FEF0097A9F0FC014281538164E070E013
:103750006AD68C01892B61F0F89469817A81C7015E
:10376000880F991F880F991F80599C4F5BDF7894B1
:10377000C8010F900F90DF91CF911F910F91FF9093
:10378000EF9008950F931F93CF93DF9300D000D055
:10379000CDB7DEB71C821B821A82198280916B031F
:1037A00007EF1FEF8823C1F0AE014D5F5F4F64E06C
:1037B00070E0CE010196AAD68C01892B69F4E981CB
:1037C000FA818B819C8193838283F89469817A81C9
:1037D0008CE693E005DF7894C8010F900F900F906E
:1037E0000F90DF91CF911F910F910895AFD704965D
:1037F00008958F929F92AF92BF92CF92DF92EF92F5
:10380000FF920F931F93CF93DF9300D0CDB7DEB716
:103810001A821982BC016F5F7F4F6330710598F087
:10382000AA24AA94BA2CC5010F900F90DF91CF91D2
:103830001F910F91FF90EF90DF90CF90BF90AF90CE
:103840009F908F9008954115510551F348015901FA
:103850008A016C01CBDF8815990511F7E114F10499
:10386000F9F28E0D9F1DA816B906D0F280916B0358
:103870008823F1F0F894B501645071099701AE0105
:103880004F5F5F4FC8010496D6D65C01892B71F457
:1038900089819A81F80193838283C601880F991FD9
:1038A000880F991FB80180599C4F9ADE7894BBCF3E
:1038B00087EFA82EBB24BA94B6CFAF92BF92CF9217
:1038C000DF92EF92FF920F931F93CF93DF9300D07D
:1038D000CDB7DEB71A821982892B09F047C061156E
:1038E000710509F443C04115510509F43FC0211584
:1038F000310509F43BC001151105C1F180916B033D
:103900008823B9F179016A015B01F894BE016F5F08
:103910007F4F8CE693E073DE789489819A810097DB
:1039200059F1DC0112966D917C91A80104969CD608
:103930008C01E981FA81D501ED93FC938281938119
:103940000496F6019183808351DFD7018D939C9378
:10395000C8010F900F90DF91CF911F910F91FF90B1
:10396000EF90DF90CF90BF90AF9008950FEF1FEFD3
:10397000EFCF07EF1FEFECCF0EEF1FEFE9CFCF93A5
:10398000DF93EC01672B71F4EAD68C179D0760F08A
:10399000DDD62496C80FD91FDCD68C0F9D1FDF9172
:1039A000CF910895D9D6F1CF90E080E0F8CF0F9372
:1039B0001F93CF93DF9320916B0321112BC08B01B9
:1039C000EC0180E793E006DE84E793E003DE8CE61B
:1039D00093E000DE97D00097C1F4C1D670E060E0BC
:1039E000CEDF46E351E062E070E07ED1009769F4FB
:1039F0008091360190913701C4D6B801CE01F9D437
:103A0000009719F421E020936B03DF91CF911F9170
:103A10000F91089584EF9FEFF8CF9EC6A0C6CF9375
:103A2000DF93A0D6EC01892B11F40FDE3ADECE0134
:103A3000DF91CF910895CF93DF9394D6EC01892B3A
:103A400009F403DECE01DF91CF9108958091360114
:103A5000909137010895CF93DF9380916B03D0E06D
:103A6000C0E08823D1F092D6EC01892BB1F4EDDDD2
:103A700018DE8091360190913701E4D1E5D2EC0156
:103A8000892B59F480E793E0DADD84E793E0D7DD12
:103A90008CE693E0D4DD10926B03CE01DF91CF91E1
:103AA0000895EF92FF920F931F93CF93DF93EC0152
:103AB0007A018B010F5F1F4F0E9DA0010F9D500DCE
:103AC0001E9D500D112470E060E00E94822B90E05A
:103AD00080E0F0E0E0E02FEFE816F90639F4DF913E
:103AE000CF911F910F91FF90EF9008951A82198244
:103AF0002883309711F0D283C1830196FE01C00F55
:103B0000D11FEACFCF92DF92EF92FF920F931F93D4
:103B1000CF93DF9304E614E00C7F43E050E068E3CA
:103B200071E08EE391E012D488E3E82E81E0F82E74
:103B30009EE3C92E91E0D92EC3EDD4E0D7014D917B
:103B40005D917D01F601619171916F011983088387
:103B50005D834C835B834A837F836E839B012F5FEE
:103B60003F4F249FC001259F900D349F900D11243D
:103B7000998788870115110511F0C80192DF8885A2
:103B80009985080F191F2A96FEE3EF16F1E0FF064C
:103B9000A9F6EAE7F3E087EEDF011D928A95E9F7DF
:103BA00010927903109278031092F2041092F104AB
:103BB0001092F6041092F5041092F4041092F3049B
:103BC0001092F8041092F7041092FA041092F9047B
:103BD0001092FC041092FB04109200051092FF0456
:103BE0001092FE041092FD0410920205109201053D
:103BF00010920405109203051092D0041092CF0485
:103C00001092D2041092D10490E080E0DF91CF9125
:103C10001F910F91FF90EF90DF90CF900895009744
:103C2000F1F0F894AEE3B1E0E3EDF4E030E020E051
:103C30004D915D9148175907A8F042815381411574
:103C4000510581F08AE0829FF001839FF00D1124DD
:103C5000ED52FB4F80819181009759F4789490E068
:103C600080E008952F5F3F4F3A962330310501F7EA
:103C7000F5CFDC0111966D917C9171836083415089
:103C8000510953834283FC012193CF017894089515
:103C9000009749F1DC018E91853041F4E091D10427
:103CA000F091D2043097F9F0CD0109948530D8F421
:103CB000282F30E0F8948FEF8C938AE0829FF001F8
:103CC000839FF00D1124ED52FB4F8081918112965C
:103CD0009C938E931197B183A083828193810196E7
:103CE0009383828378940895CF92DF92EF92FF922C
:103CF0000F931F93CF93DF939C018DE793E08C7F0D
:103D00004115510509F49BC02115310509F497C0EF
:103D10006115710509F493C07A01AB01B9016D5FBA
:103D20007F4F6C7F9B012F5F3F4F249F8001259F1A
:103D3000100D349F100D1124F8942091F10430914E
:103D4000F204232B59F42091F9043091FA0421153F
:103D5000310569F12017310708F058C02091FB04A4
:103D60003091FC04232B91F42091F9043091FA0452
:103D7000820F931F20910305309104052115310511
:103D800009F441C02017310708F056C07894CFEFEE
:103D9000DFEF86EF9FEFF701D183C083DF91CF91F3
:103DA0001F910F91FF90EF90DF90CF900895C3E0A7
:103DB000D0E0C0907803D090790324EE30E02C1945
:103DC0003D092017310710F32AE02C9FF0012D9FA9
:103DD000F00D1124ED52FB4F918380835583448372
:103DE000538342837783668311870087009709F0A6
:103DF00058DE0C0D1D1D1093790300937803789401
:103E000090E080E0C8CFC4E0D0E0D3CFC3E0D0E002
:103E10002AE02C9FF0012D9FF00D1124ED52FB4F55
:103E2000918380835583448353834283778366835E
:103E3000009729F336DEE3CFC4E0D0E0E9CF8FEF7F
:103E40009FEFACCF9C010397029708F069C0F894EC
:103E500084E09AE0482F50E0241735070CF44DC059
:103E600091E08AE0829FF001839FF00D1124ED52D2
:103E7000FB4F1182108215821482138212821782E4
:103E800016829923B1F18091F1049091F204892B6B
:103E9000A9F42091F9043091FA042115310571F04B
:103EA0008091780390917903821B930B909379030F
:103EB000809378031092FA041092F9048091FB0425
:103EC0009091FC04892BA9F42091030530910405FD
:103ED0002115310571F08091780390917903821B4F
:103EE000930B9093790380937803109204051092BA
:103EF0000305789490E080E00895949FF001959FE9
:103F0000F00D1124ED52FB4F40815181452B31F4CE
:103F100040855185452B11F481509CCF90E0A1CF75
:103F20008FEF9FEF08954115510549F1009739F141
:103F30006115710521F1F8942091CF043091D004DE
:103F4000232BB9F42091D1043091D204232B89F48E
:103F50009093D0048093CF047093D2046093D104E3
:103F6000789425E030E090E080E0FA01318320830E
:103F7000089578942FEF3FEF86EF9FEFF6CF8FEF06
:103F80009FEF0895059769F4F8941092D004109269
:103F9000CF041092D2041092D104789490E080E083
:103FA00008958FEF9FEF08956115710519F4F0E002
:103FB000E0E011C08530910581F4E091CF04F091EB
:103FC000D0043097A1F3CB0101960995009779F3BE
:103FD000FC0185E08193CF0108959C0123503109B4
:103FE0002230310520F72AE0289FD001299FB00D0B
:103FF0001124AD52BB4F2D913C911197232BB9F257
:1040000016962D913C9117972617370780F2F89452
:1040100012962D913C9113972115310529F0ED91C0
:10402000FC911197309711F47894C1CF418152815E
:1040300011965C934E932150310913963C932E9325
:10404000129781937894C7CFE1E6F4E08EE6DF0122
:104050001D928A95E9F7EAE7F3E087EEDF011D920A
:104060008A95E9F71092790310927803E3EDF4E072
:1040700082E3DF011D928A95E9F7EFECF4E084E03A
:10408000DF011D928A95E9F790E080E00895CF93D3
:10409000DF93C0914401D0914501CF3FDC0759F433
:1040A00040D4909345018093440197FF09C0D09379
:1040B0004501C093440184EF9FEFDF91CF910895B4
:1040C00090E080E0FACF8230910528F480930505D6
:1040D00090E080E008958FEF9FEF08954F925F92F8
:1040E0006F927F92AF92BF92CF92DF92EF92FF9248
:1040F0000F931F93CF93DF9300D0CDB7DEB71A8213
:104100001982009709F478C06115710509F474C02B
:10411000209144013091450107EF1FEF2F3F3F4FA2
:1041200009F444C06B015C01412C512C3201F12C8B
:10413000E12C10E000E09E012F5F3F4FA6014E19D9
:104140005F09B5016E0D7F1D80914401909145017D
:1041500047D4892B09F04AC089819A81009741F49C
:10416000E114F10429F420910505222309F441C04A
:10417000E80EF91EEC14FD04C8F480E8481684E843
:1041800058068EE16806710418F560E070E0CB0116
:1041900006D72AE0420E511C611C711C0A3F4FEFEA
:1041A000140721F0043F8FEF1807A1F4C8010F9006
:1041B0000F90DF91CF911F910F91FF90EF90DF90C3
:1041C000CF90BF90AF907F906F905F904F90089589
:1041D00001EF1FEF81E090E0013F2FEF120711F098
:1041E00090E080E0892B09F4A6CFE0CF04EF1FEF29
:1041F000DDCF0AEF1FEFDACF0FEF1FEFD7CF4F92D0
:104200005F926F927F92AF92BF92CF92DF92EF92C6
:10421000FF920F931F93CF93DF9300D0CDB7DEB7FC
:104220001A821982009709F478C06115710509F4A2
:1042300074C0209144013091450107EF1FEF2F3FDB
:104240003F4F09F444C06B015C01412C512C3201F9
:10425000F12CE12C10E000E09E012F5F3F4FA60102
:104260004E195F09B5016E0D7F1D8091440190913B
:1042700045016CD3892B09F04AC089819A81009746
:1042800041F4E114F10429F420910505222309F4F5
:1042900041C0E80EF91EEC14FD04C8F480E4481691
:1042A00082E458068FE06806710418F560E070E05B
:1042B000CB0175D62AE0420E511C611C711C0E3FC9
:1042C0004FEF140721F0043F8FEF1807A1F4C80146
:1042D0000F900F90DF91CF911F910F91FF90EF9072
:1042E000DF90CF90BF90AF907F906F905F904F9096
:1042F000089502EF1FEF81E090E0023F2FEF1207D9
:1043000011F090E080E0892B09F4A6CFE0CF04EF14
:104310001FEFDDCF0EEF1FEFDACF0FEF1FEFD7CF7D
:1043200080914401909145018F3F980749F0F1D267
:10433000892B49F48FEF9FEF9093450180934401BF
:1043400090E080E0089584EF9FEF0895CF92DF9290
:10435000EF92FF920F931F93CF93DF9321E04115CC
:10436000510509F020E04150510921112CC0DC0118
:10437000FB01D12CC12C21E022C03FEFC31AD30A8C
:104380007D010D911D91E701EA80FB80E016F106A9
:10439000A8F420813181E280F380F182E0823383CE
:1043A0002283ED90FC9011979D0122503109E90183
:1043B000F982E88211961C930E9320E03296C4167F
:1043C000D506D8F2D2CFDF91CF911F910F91FF90F8
:1043D000EF90DF90CF900895FC01680F791F90E077
:1043E00080E0E617F70709F408952191820F911DE7
:1043F000F8CF20910605211113C049DE009791F4F2
:1044000010920C0510920B0510920A0510920905E6
:10441000109208051092070521E0209306050895E3
:1044200084EF9FEF0895AF92BF92CF92DF92EF9209
:10443000FF920F931F93CF93DF93009709F460C00F
:104440004630510508F45CC020910605C7EFDFEF48
:10445000222309F449C08C01060F171FF801C08000
:10446000D180C114D10409F44EC096012A5F3F4F98
:104470004217530708F447C07C0180910B059091C7
:104480000C0593838283B6016C5F7F4F5801A60EA3
:10449000B71EC801A1DFF5019183808364E070E05D
:1044A000C8011CDEEC01892BF9F481E090E00BDE01
:1044B000B601C801049612DEEC01892B91F462E08A
:1044C00070E0C5010BDEEC01892B59F4C701E0DB7C
:1044D00080910B0590910C05019690930C058093AB
:1044E0000B0590E080E0EFDDCE01DF91CF911F91D1
:1044F0000F91FF90EF90DF90CF90BF90AF90089515
:10450000CFEFDFEFF1CFC9EFDFEFEECF6F927F920A
:104510008F929F92AF92BF92CF92DF92EF92FF92D3
:104520000F931F93CF93DF9300D000D0CDB7DEB7AA
:10453000009709F47AC04115510509F476C020911D
:10454000060507EF1FEF222309F44DC03A017B0156
:104550005C0164E070E0CE01019651DE8C01892B94
:1045600009F041C009811A810115110509F45AC0E9
:10457000480186E0880E911CB701680D791D809175
:1045800046019091470110DD6C01009709F450C07D
:10459000A70170E060E00E94822B89819A81AB8143
:1045A000BC81EC0CFD1CF70181939193A193B19315
:1045B0007F0181E090E087DDB801C70120DE892B13
:1045C00031F562E070E0C701800F911F18DE8C01A9
:1045D000892BE9F490E080E076DDF501D182C0829C
:1045E000F30191828082C8010F900F900F900F907D
:1045F000DF91CF911F910F91FF90EF90DF90CF90BF
:10460000BF90AF909F908F907F906F90089590E0B3
:1046100080E059DDF50111821082F30111821082D0
:10462000C60136DB09EF1FEFDECF0FEF1FEFDBCF49
:1046300006EF1FEFD8CF0097A1F04115510589F083
:104640002115310571F0F90136966E177F0748F094
:10465000DC012D933C93DA01ED93FC9390E080E034
:1046600008958FEF9FEF0895AF92BF92CF92DF92A0
:10467000EF92FF920F931F93CF93DF93009709F46C
:104680005FC04115510509F45BC06530710508F440
:1046900057C020910605C7EFDFEF222391F1DC011F
:1046A000CD90DC9011971296ED91FC9196012A5FC6
:1046B0003F4FC9EFDFEF2617370719F5C091070500
:1046C000D0910805209749F521E030E030930805A6
:1046D000209307057A018C01F0930A05E093090500
:1046E0005601B4E0AB0EB11CB50176DE0A0D1B1D00
:1046F000F801208131818217930729F5D701CD92E6
:10470000DC92CE01DF91CF911F910F91FF90EF903E
:10471000DF90CF90BF90AF90089520910905309120
:104720000A052F5F3F4FCCEFDFEFE217F30790F260
:10473000CBEFDFEF2E173F0768F2D0E0C0E0CACF23
:10474000CFEFDFEFDECFC3EFDFEFDBCF84E090E032
:10475000089582E090E008958CEF9FEF089580E245
:1047600090E0089510920C0510920B0510920A0526
:1047700010920905109208051092070590E080E05C
:10478000089590934701809346010895809106050E
:10479000882391F0C5DD009789F410920C051092E2
:1047A0000B0510920A051092090510920805109247
:1047B000070510920605089590E080E0089500979F
:1047C00049F06115710531F0FC0111821082FB0185
:1047D000118210820895F3CF26E030E040E855E2E0
:1047E00060E070E090E080E000C010920E05109252
:1047F0000D0589309105E0F480509C4DFC015AC7AD
:104800000924122419241C241F24222425242824AA
:104810002E2481E090E090930E0580930D058CE1AD
:1048200095E000C682E090E090930E0580930D0520
:10483000089584E090E0F8CF88E090E0F5CF80E143
:1048400090E0F2CF80E290E0EFCF80E490E0ECCF18
:1048500080E890E090930E0580930D0580910D0502
:1048600090910E059160E0CF1F920F920FB60F92BC
:1048700011242F933F934F935F936F937F938F9365
:104880009F93AF93BF93EF93FF9387EE9FEF909328
:10489000850080938400B7D0FF91EF91BF91AF91D5
:1048A0009F918F917F916F915F914F913F912F9148
:1048B0000F900FBE0F901F90189587EE9FEF90936B
:1048C000850080938400AFE6B0E08C918E7F8C935E
:1048D000E0E8F0E080818C7F8083E1E8F0E0808197
:1048E000877E808380818360808380818B7F8083CB
:1048F0008C9181608C930895EFE6F0E08081908147
:104900009E7F90838170089581E0089510920F0535
:10491000089568EE73E080E090E041D390E080E09D
:10492000089526E030E040E052EC61E070E090E075
:1049300080E05BDF8CE195E0ABD4892B21F08CE14A
:1049400095E0C0D4F7CF90E080E00895CF92DF9259
:10495000EF92FF920F931F93CF93DF936B017A0136
:10496000E901198218828CE195E092D4892B69F1D2
:104970008601CC24C39482E0D82E80910F0581114A
:1049800010C08CE195E09ED40297B9F7C0920F0554
:10499000F801D1928F01888199810196998388834A
:1049A000ECCF888199818E159F0578F48CE195E094
:1049B00089D48F3F9807A9F3F80181938F018881EB
:1049C0009981019699838883ECCF90E080E0DF9114
:1049D000CF911F910F91FF90EF90DF90CF900895AE
:1049E0000F931F93CF93DF93EA0189018CE195E048
:1049F000FDD5F801D183C08390E080E0DF91CF91B5
:104A00001F910F9108958091100591E0980F909358
:104A10001005882349F021E030E0309312052093FF
:104A2000110580931005089578940E94AD03F894C1
:104A3000809110058150F5CF0F931F93CF93DF9393
:104A40001092D2051092D105E0D2C6DEC0915C0171
:104A5000D0915D011982188260ED7BEF81E090E0DA
:104A60000E94A20370E060E090E080E00E942302D8
:104A7000009709F042C00E94CC04F89478948A818F
:104A80009B81BC01685F7F4F0E942602892B71F4D5
:104A90006FEF7FEFCB010E94B6020E949C03882338
:104AA00029F081E0FE01E355FF4F8083F89405DF94
:104AB0000E949F03882311F080E00BC00E949C039A
:104AC0008111FACF81E0FE01E355FF4F90819111F2
:104AD000F3CF8093D10578940E94060C8C017894D2
:104AE000C355DF4F8091D10581110CC00E949A05FA
:104AF0000E948203F89490E080E0DF91CF911F91B3
:104B00000F9108950E9480030E949F038823D9F08B
:104B100081E08093D2059091D20581E0911180E0EF
:104B20008093D1058091D2058111E6DE0130110517
:104B300029F40E94060C892B09F4E8DE0E94060C79
:104B40008C01E2DECFCF0E949C038111E1CF81E096
:104B500098819111DECF80E0DCCF5058BB27AA2787
:104B60000ED00DC1FED030F003D120F031F49F3FC4
:104B700011F41EF4F3C00EF4E095E7FBE9C0E92F51
:104B80000FD180F3BA17620773078407950718F0EF
:104B900071F49EF527C10EF4E0950B2EBA2FA02DCF
:104BA0000B01B90190010C01CA01A0011124FF27DA
:104BB000591B99F0593F50F4503E68F11A16F040D5
:104BC000A22F232F342F4427585FF3CF46953795D4
:104BD0002795A795F0405395C9F77EF41F16BA0B99
:104BE000620B730B840BBAF09150A1F0FF0FBB1F47
:104BF000661F771F881FC2F70EC0BA0F621F731F90
:104C0000841F48F4879577956795B795F7959E3FEC
:104C100008F0B3CF9395880F08F09927EE0F97957A
:104C20008795089571D008F481E0089504D06894C0
:104C3000B111D9C00895BCD088F09F5790F0B92F1A
:104C40009927B751A0F0D1F0660F771F881F991FE1
:104C50001AF0BA95C9F712C0B13081F0C3D0B1E0F3
:104C60000895C0C0672F782F8827B85F39F0B93F03
:104C7000CCF3869577956795B395D9F73EF49095E3
:104C80008095709561957F4F8F4F9F4F0895E89461
:104C900009C097FB3EF490958095709561957F4F84
:104CA0008F4F9F4F9923A9F0F92F96E9BB27939532
:104CB000F695879577956795B795F111F8CFFAF442
:104CC000BB0F11F460FF1BC06F5F7F4F8F4F9F4F73
:104CD00016C0882311F096E911C0772321F09EE8D1
:104CE000872F762F05C0662371F096E8862F70E037
:104CF00060E02AF09A95660F771F881FDAF7880F11
:104D00009695879597F90895990F0008550FAA0B66
:104D1000E0E8FEEF16161706E807F907C0F01216CE
:104D20001306E407F50798F0621B730B840B950BD1
:104D300039F40A2661F0232B242B252B21F4089526
:104D40000A2609F4A140A6958FEF811D811D0895C3
:104D500097F99F6780E870E060E008959FEF80EC2E
:104D6000089500240A9416161706180609060895D1
:104D700000240A9412161306140605060895092E37
:104D80000394000C11F4882352F0BB0F40F4BF2BA6
:104D900011F460FF04C06F5F7F4F8F4F9F4F0895E6
:104DA00057FD9058440F551F59F05F3F71F04795DC
:104DB000880F97FB991F61F09F3F79F087950895C1
:104DC000121613061406551FF2CF4695F1DF08C0E0
:104DD000161617061806991FF1CF869571056105FD
:104DE00008940895E894BB2766277727CB0197F9A5
:104DF00008958ADF08F48FEF08950BD0C0CFB1DF9C
:104E000028F0B6DF18F0952309F0A2CFA7CF112420
:104E1000EACFC6DFA0F3959FD1F3950F50E0551F61
:104E2000629FF001729FBB27F00DB11D639FAA27FF
:104E3000F00DB11DAA1F649F6627B00DA11D661F4E
:104E4000829F2227B00DA11D621F739FB00DA11D6F
:104E5000621F839FA00D611D221F749F3327A00D29
:104E6000611D231F849F600D211D822F762F6A2FC5
:104E700011249F5750408AF0E1F088234AF0EE0F4A
:104E8000FF1FBB1F661F771F881F91505040A9F757
:104E90009E3F510570F05CCFA6CF5F3FECF3983E8C
:104EA000DCF3869577956795B795F795E7959F5FBE
:104EB000C1F7FE2B880F911D9695879597F9089558
:104EC0001F920F920FB60F9211242F933F938F933F
:104ED0009F93AF93BF938091140590911505A09176
:104EE0001605B09117053091130523E0230F2D37D8
:104EF00058F50196A11DB11D20931305809314054B
:104F000090931505A0931605B09317058091180589
:104F100090911905A0911A05B0911B050196A11D4C
:104F2000B11D8093180590931905A0931A05B093AD
:104F30001B05BF91AF919F918F913F912F910F9042
:104F40000FBE0F901F90189526E8230F0296A11D03
:104F5000B11DD2CF3FB7F8948091180590911905F3
:104F6000A0911A05B0911B0526B5A89B05C02F3F3F
:104F700019F00196A11DB11D3FBFBA2FA92F982F7F
:104F80008827BC01CD01620F711D811D911D42E07A
:104F9000660F771F881F991F4A95D1F708958F9242
:104FA0009F92AF92BF92CF92DF92EF92FF926B01EE
:104FB0007C01D0DF4B015C01C114D104E104F10498
:104FC000D9F041D3C7DF681979098A099B09683E7E
:104FD00073408105910580F321E0C21AD108E108F0
:104FE000F10888EE880E83E0981EA11CB11CC11444
:104FF000D104E104F10431F7FF90EF90DF90CF90FE
:10500000BF90AF909F908F900895789484B5826000
:1050100084BD84B5816084BD85B5826085BD85B55C
:10502000816085BDEEE6F0E0808181608083E1E80B
:10503000F0E0108280818260808380818160808343
:10504000E0E8F0E0808181608083E1EBF0E0808146
:1050500084608083E0EBF0E0808181608083EAE718
:10506000F0E08081846080838081826080838081A1
:10507000816080838081806880831092C100089560
:105080008E3008F08E502091480190E4299F9001C5
:1050900011248770822B80937C0080917A00806439
:1050A00080937A0080917A0086FDFCCF8091780011
:1050B0009091790008951F93CF93DF93182FEB0100
:1050C00061E07DD0209731F460E0812FDF91CF91B6
:1050D0001F91B1C0CF3FD10511F461E0F6CFE12FB0
:1050E000F0E0E859FF4FE491E33031F140F4E13072
:1050F000B1F0E230E1F0C038D1057CF7E5CFE73020
:1051000029F1E83059F1E430B1F7809180008062F4
:1051100080938000D0938B00C0938A0004C084B534
:10512000806884BDC7BDDF91CF911F91089584B57C
:10513000806284BDC8BDF7CF809180008068809375
:105140008000D0938900C0938800EDCF8091B0009B
:1051500080688093B000C093B300E5CF8091B00029
:1051600080628093B000C093B400DDCF833081F0C3
:1051700028F4813099F08230A9F008958730A9F0A1
:105180008830C9F08430B1F4809180008F7D03C0F5
:10519000809180008F7780938000089584B58F7709
:1051A00084BD089584B58F7DFBCF8091B0008F774B
:1051B0008093B00008958091B0008F7DF9CFCF9398
:1051C000DF9390E0FC01E458FF4F249180579F4FFC
:1051D000FC0184918823C9F090E0880F991FFC019D
:1051E000E255FF4FA591B491FC01EC55FF4FC591DD
:1051F000D49161110DC09FB7F8948C9120958223B2
:105200008C938881282328839FBFDF91CF910895B5
:10521000623051F49FB7F8943C91822F809583239C
:105220008C93E8812E2BEFCF8FB7F894EC912E2B37
:105230002C938FBFEACF1F93CF93DF93282F30E0BB
:10524000F901E859FF4F8491F901E458FF4FD491D7
:10525000F901E057FF4FC491CC23A1F0162F811123
:1052600085DFEC2FF0E0EE0FFF1FEC55FF4FA5910F
:10527000B4918FB7F894EC91111108C0D095DE234A
:10528000DC938FBFDF91CF911F910895DE2BF8CF74
:10529000FC01918D228D892F90E0805C9F4F821BB5
:1052A00091098F7399270895FC01918D828D98172C
:1052B00031F0828DE80FF11D858D90E008958FEF1C
:1052C0009FEF0895FC01918D828D981761F0A28D5A
:1052D000AE0FBF2FB11D5D968C91928D9F5F9F7316
:1052E000928F90E008958FEF9FEF0895FC01538D0A
:1052F000448D252F30E0842F90E0821B930B5417B0
:1053000010F0CF96089501970895FC01A48DA80F81
:10531000B92FB11DA35ABF4F2C91848D90E00196F7
:105320008F739927848FA689B7892C93A089B18917
:105330008C91837080648C93938D848D981306C0B8
:105340000288F389E02D80818F7D80830895CF933B
:10535000DF93EC01888D8823B1F0AA89BB89E889A5
:10536000F9898C9185FD03C0808186FD0CC00FB644
:1053700007FCF7CF8C9185FFF2CF808185FFEDCFC1
:10538000CE01C3DFEACFDF91CF910895EF92FF9274
:105390000F931F93CF93DF93EC0181E0888F9B8D58
:1053A0008C8D98131AC0E889F989808185FF15C012
:1053B0009FB7F894EE89FF896083E889F989808135
:1053C0008370806480839FBF81E090E0DF91CF9104
:1053D0001F910F91FF90EF900895F62E0B8D10E026
:1053E0000F5F1F4F0F731127E02E8C8D8E110BC096
:1053F0000FB607FCFACFE889F989808185FFF5CFE0
:10540000CE0183DFF2CFEB8DEC0FFD2FF11DE35AC0
:10541000FF4FF0829FB7F8940B8FEA89FB89808158
:105420008062D0CFCF92DF92EF92FF921F93CF9303
:10543000DF93EC016A017B01122FE889F98982E090
:105440008083C11481EED806E104F10499F060E094
:1054500079E08DE390E0A70196010AD1215031094E
:10546000410951095695479537952795211580E1B2
:10547000380790F0E889F989108260E874E88EE1D5
:1054800090E0A7019601F4D021503109410951095A
:105490005695479537952795EC85FD853083EE85A4
:1054A000FF852083188EEC89FD891083EA89FB89AA
:1054B000808180618083EA89FB8980818860808324
:1054C000EA89FB89808180688083EA89FB89808101
:1054D0008F7D8083DF91CF911F91FF90EF90DF90C0
:1054E000CF9008951F920F920FB60F9211242F9311
:1054F0008F939F93EF93FF93E0912C05F0912D05EF
:105500008081E0913205F091330582FD1BC09081CE
:10551000809135058F5F8F7320913605821741F09A
:10552000E0913505F0E0E45EFA4F958F8093350504
:10553000FF91EF919F918F912F910F900FBE0F9040
:105540001F9018958081F4CF1F920F920FB60F9283
:1055500011242F933F934F935F936F937F938F9378
:105560009F93AF93BF93EF93FF938CE195E0CDDED4
:10557000FF91EF91BF91AF919F918F917F916F912B
:105580005F914F913F912F910F900FBE0F901F9001
:105590001895ECE1F5E01382128288EE93E0A0E02A
:1055A000B0E084839583A683B78386EE91E09183F0
:1055B000808385EC90E09587848784EC90E09787E2
:1055C000868780EC90E0918B808B81EC90E0938BD0
:1055D000828B82EC90E0958B848B86EC90E0978BAD
:1055E000868B118E128E138E148E0895AF92BF92F9
:1055F000CF92DF92EF92FF920F931F93CF93DF939F
:105600006C017B018B01040F151FEB015E01AE18CD
:10561000BF08C017D10759F06991D601ED91FC91EF
:105620000190F081E02DC6010995892B79F7C5011C
:10563000DF91CF911F910F91FF90EF90DF90CF906E
:10564000BF90AF9008950895AA1BBB1B51E107C0FE
:10565000AA1FBB1FA617B70710F0A61BB70B881F02
:10566000991F5A95A9F780959095BC01CD01089591
:10567000A1E21A2EAA1BBB1BFD010DC0AA1FBB1F56
:10568000EE1FFF1FA217B307E407F50720F0A21BC8
:10569000B30BE40BF50B661F771F881F991F1A9435
:1056A00069F760957095809590959B01AC01BD015F
:1056B000CF010895EE0FFF1F0590F491E02D09949E
:1056C000A29FB001B39FC001A39F700D811D112443
:1056D000911DB29F700D811D1124911D0895F0DF61
:1056E000A59F900DB49F900DA49F800D911D112436
:1056F0000895FB01DC0102C001900D924150504021
:10570000D8F70895DC0101C06D9341505040E0F797
:065710000895F894FFCF9C
:1057160000000040000000000000803F0000000084
:10572600000040400000803F00004C4228A001FEDF
:10573600FFFFFF01E8030000FFFF00000000FFFF7E
:10574600FFFFFFFFFFFFFFFF010001000100200038
:1057560038001000FFFFFFFF014669786564537447
:105766006570446973637265746500013002FF00F9
:105776005D0E890EFE00430EC10BFD00D50D2F0EEA
:10578600FC001B0EC10BF6000C0FC10BF500E20D61
:105796004B0FF400D50E620FDE0090132A16DD00C3
:1057A600FF14C10BDA0032113A11D90045164A111D
:1057B600E2001A10C10BE1005510C10BE000CA103F
:1057C600C10BD600291AC10BD500DF12C10BD400BC
:1057D6006B12C10BD300DC11C10BDC005911C10BDC
:1057E600C0006111C10BF000921AC10BED004F1AF7
:1057F600C10B00000000C629F62A7629A7294829E8
:045806006229542996
:00000001FF
